{
  "_format": "hh-sol-artifact-1",
  "contractName": "Set",
  "sourceName": "src/contracts/Set.sol",
  "abi": [
    {
      "inputs": [
        {
          "internalType": "address",
          "name": "item",
          "type": "address"
        }
      ],
      "name": "add",
      "outputs": [],
      "stateMutability": "nonpayable",
      "type": "function"
    },
    {
      "inputs": [],
      "name": "clear",
      "outputs": [],
      "stateMutability": "nonpayable",
      "type": "function"
    },
    {
      "inputs": [
        {
          "internalType": "uint256",
          "name": "index",
          "type": "uint256"
        }
      ],
      "name": "get",
      "outputs": [
        {
          "internalType": "address",
          "name": "",
          "type": "address"
        }
      ],
      "stateMutability": "view",
      "type": "function"
    },
    {
      "inputs": [],
      "name": "getItems",
      "outputs": [
        {
          "internalType": "address[]",
          "name": "",
          "type": "address[]"
        }
      ],
      "stateMutability": "view",
      "type": "function"
    },
    {
      "inputs": [
        {
          "internalType": "address",
          "name": "item",
          "type": "address"
        }
      ],
      "name": "has",
      "outputs": [
        {
          "internalType": "bool",
          "name": "",
          "type": "bool"
        }
      ],
      "stateMutability": "view",
      "type": "function"
    },
    {
      "inputs": [
        {
          "internalType": "address",
          "name": "item",
          "type": "address"
        }
      ],
      "name": "indexOf",
      "outputs": [
        {
          "internalType": "uint256",
          "name": "",
          "type": "uint256"
        }
      ],
      "stateMutability": "view",
      "type": "function"
    },
    {
      "inputs": [
        {
          "internalType": "address",
          "name": "item",
          "type": "address"
        }
      ],
      "name": "remove",
      "outputs": [],
      "stateMutability": "nonpayable",
      "type": "function"
    },
    {
      "inputs": [],
      "name": "size",
      "outputs": [
        {
          "internalType": "uint256",
          "name": "",
          "type": "uint256"
        }
      ],
      "stateMutability": "view",
      "type": "function"
    }
  ],
  "bytecode": "0x608060405234801561001057600080fd5b50610b47806100206000396000f3fe608060405234801561001057600080fd5b50600436106100885760003560e01c806352efea6e1161005b57806352efea6e14610113578063949d225d1461011d5780639507d39a1461013b578063fd6aad251461016b57610088565b80630a3b0a4f1461008d57806321887c3d146100a957806329092d0e146100d9578063410d59cc146100f5575b600080fd5b6100a760048036038101906100a291906107da565b61019b565b005b6100c360048036038101906100be91906107da565b610292565b6040516100d09190610822565b60405180910390f35b6100f360048036038101906100ee91906107da565b6102dd565b005b6100fd61054f565b60405161010a91906108fb565b60405180910390f35b61011b6105dd565b005b610125610692565b6040516101329190610936565b60405180910390f35b6101556004803603810190610150919061097d565b61069e565b60405161016291906109b9565b60405180910390f35b610185600480360381019061018091906107da565b6106e5565b6040516101929190610936565b60405180910390f35b6000600160008373ffffffffffffffffffffffffffffffffffffffff1673ffffffffffffffffffffffffffffffffffffffff168152602001908152602001600020540361028f576000819080600181540180825580915050600190039060005260206000200160009091909190916101000a81548173ffffffffffffffffffffffffffffffffffffffff021916908373ffffffffffffffffffffffffffffffffffffffff160217905550600080549050600160008373ffffffffffffffffffffffffffffffffffffffff1673ffffffffffffffffffffffffffffffffffffffff168152602001908152602001600020819055505b50565b600080600160008473ffffffffffffffffffffffffffffffffffffffff1673ffffffffffffffffffffffffffffffffffffffff16815260200190815260200160002054119050919050565b6000600160008373ffffffffffffffffffffffffffffffffffffffff1673ffffffffffffffffffffffffffffffffffffffff16815260200190815260200160002054111561054c57600060018060008473ffffffffffffffffffffffffffffffffffffffff1673ffffffffffffffffffffffffffffffffffffffff168152602001908152602001600020546103729190610a03565b90506000600160008473ffffffffffffffffffffffffffffffffffffffff1673ffffffffffffffffffffffffffffffffffffffff168152602001908152602001600020819055506001816103c69190610a37565b600160008060016000805490506103dd9190610a03565b815481106103ee576103ed610a6b565b5b9060005260206000200160009054906101000a900473ffffffffffffffffffffffffffffffffffffffff1673ffffffffffffffffffffffffffffffffffffffff1673ffffffffffffffffffffffffffffffffffffffff168152602001908152602001600020819055506000600160008054905061046b9190610a03565b8154811061047c5761047b610a6b565b5b9060005260206000200160009054906101000a900473ffffffffffffffffffffffffffffffffffffffff16600082815481106104bb576104ba610a6b565b5b9060005260206000200160006101000a81548173ffffffffffffffffffffffffffffffffffffffff021916908373ffffffffffffffffffffffffffffffffffffffff160217905550600080548061051557610514610a9a565b5b6001900381819060005260206000200160006101000a81549073ffffffffffffffffffffffffffffffffffffffff02191690559055505b50565b606060008054806020026020016040519081016040528092919081815260200182805480156105d357602002820191906000526020600020905b8160009054906101000a900473ffffffffffffffffffffffffffffffffffffffff1673ffffffffffffffffffffffffffffffffffffffff1681526020019060010190808311610589575b5050505050905090565b60005b6000805490508110156106825760006001600080848154811061060657610605610a6b565b5b9060005260206000200160009054906101000a900473ffffffffffffffffffffffffffffffffffffffff1673ffffffffffffffffffffffffffffffffffffffff1673ffffffffffffffffffffffffffffffffffffffff16815260200190815260200160002081905550808061067a90610ac9565b9150506105e0565b506000806106909190610739565b565b60008080549050905090565b60008082815481106106b3576106b2610a6b565b5b9060005260206000200160009054906101000a900473ffffffffffffffffffffffffffffffffffffffff169050919050565b600060018060008473ffffffffffffffffffffffffffffffffffffffff1673ffffffffffffffffffffffffffffffffffffffff168152602001908152602001600020546107329190610a03565b9050919050565b5080546000825590600052602060002090810190610757919061075a565b50565b5b8082111561077357600081600090555060010161075b565b5090565b600080fd5b600073ffffffffffffffffffffffffffffffffffffffff82169050919050565b60006107a78261077c565b9050919050565b6107b78161079c565b81146107c257600080fd5b50565b6000813590506107d4816107ae565b92915050565b6000602082840312156107f0576107ef610777565b5b60006107fe848285016107c5565b91505092915050565b60008115159050919050565b61081c81610807565b82525050565b60006020820190506108376000830184610813565b92915050565b600081519050919050565b600082825260208201905092915050565b6000819050602082019050919050565b6108728161079c565b82525050565b60006108848383610869565b60208301905092915050565b6000602082019050919050565b60006108a88261083d565b6108b28185610848565b93506108bd83610859565b8060005b838110156108ee5781516108d58882610878565b97506108e083610890565b9250506001810190506108c1565b5085935050505092915050565b60006020820190508181036000830152610915818461089d565b905092915050565b6000819050919050565b6109308161091d565b82525050565b600060208201905061094b6000830184610927565b92915050565b61095a8161091d565b811461096557600080fd5b50565b60008135905061097781610951565b92915050565b60006020828403121561099357610992610777565b5b60006109a184828501610968565b91505092915050565b6109b38161079c565b82525050565b60006020820190506109ce60008301846109aa565b92915050565b7f4e487b7100000000000000000000000000000000000000000000000000000000600052601160045260246000fd5b6000610a0e8261091d565b9150610a198361091d565b9250828203905081811115610a3157610a306109d4565b5b92915050565b6000610a428261091d565b9150610a4d8361091d565b9250828201905080821115610a6557610a646109d4565b5b92915050565b7f4e487b7100000000000000000000000000000000000000000000000000000000600052603260045260246000fd5b7f4e487b7100000000000000000000000000000000000000000000000000000000600052603160045260246000fd5b6000610ad48261091d565b91507fffffffffffffffffffffffffffffffffffffffffffffffffffffffffffffffff8203610b0657610b056109d4565b5b60018201905091905056fea2646970667358221220088d6b74e391b0d7553d5eadcacc9cc9b84b8a7c6b9f25cadf1769ca4ec4ab3c64736f6c63430008110033",
  "linkReferences": {},
  "deployedLinkReferences": {}
}