{
  "_format": "hh-sol-artifact-1",
  "contractName": "SBT",
  "sourceName": "src/contracts/SBT.sol",
  "abi": [
    {
      "inputs": [],
      "stateMutability": "nonpayable",
      "type": "constructor"
    },
    {
      "anonymous": false,
      "inputs": [
        {
          "indexed": true,
          "internalType": "address",
          "name": "owner",
          "type": "address"
        },
        {
          "indexed": true,
          "internalType": "address",
          "name": "approved",
          "type": "address"
        },
        {
          "indexed": true,
          "internalType": "uint256",
          "name": "tokenId",
          "type": "uint256"
        }
      ],
      "name": "Approval",
      "type": "event"
    },
    {
      "anonymous": false,
      "inputs": [
        {
          "indexed": true,
          "internalType": "address",
          "name": "owner",
          "type": "address"
        },
        {
          "indexed": true,
          "internalType": "address",
          "name": "operator",
          "type": "address"
        },
        {
          "indexed": false,
          "internalType": "bool",
          "name": "approved",
          "type": "bool"
        }
      ],
      "name": "ApprovalForAll",
      "type": "event"
    },
    {
      "anonymous": false,
      "inputs": [
        {
          "indexed": false,
          "internalType": "address",
          "name": "_from",
          "type": "address"
        },
        {
          "indexed": false,
          "internalType": "address",
          "name": "_to",
          "type": "address"
        },
        {
          "indexed": false,
          "internalType": "string",
          "name": "_uri",
          "type": "string"
        }
      ],
      "name": "EndorsedMint",
      "type": "event"
    },
    {
      "anonymous": false,
      "inputs": [
        {
          "indexed": false,
          "internalType": "address",
          "name": "_to",
          "type": "address"
        },
        {
          "indexed": false,
          "internalType": "uint256",
          "name": "_tokenId",
          "type": "uint256"
        },
        {
          "indexed": false,
          "internalType": "string",
          "name": "_uri",
          "type": "string"
        }
      ],
      "name": "Minted",
      "type": "event"
    },
    {
      "anonymous": false,
      "inputs": [
        {
          "indexed": false,
          "internalType": "address[]",
          "name": "_to",
          "type": "address[]"
        },
        {
          "indexed": false,
          "internalType": "string[]",
          "name": "_uri",
          "type": "string[]"
        }
      ],
      "name": "MultipleMinted",
      "type": "event"
    },
    {
      "anonymous": false,
      "inputs": [
        {
          "indexed": true,
          "internalType": "address",
          "name": "from",
          "type": "address"
        },
        {
          "indexed": true,
          "internalType": "address",
          "name": "to",
          "type": "address"
        },
        {
          "indexed": true,
          "internalType": "uint256",
          "name": "tokenId",
          "type": "uint256"
        }
      ],
      "name": "Transfer",
      "type": "event"
    },
    {
      "inputs": [
        {
          "internalType": "address",
          "name": "to",
          "type": "address"
        },
        {
          "internalType": "uint256",
          "name": "tokenId",
          "type": "uint256"
        }
      ],
      "name": "approve",
      "outputs": [],
      "stateMutability": "nonpayable",
      "type": "function"
    },
    {
      "inputs": [
        {
          "internalType": "address",
          "name": "owner",
          "type": "address"
        }
      ],
      "name": "balanceOf",
      "outputs": [
        {
          "internalType": "uint256",
          "name": "",
          "type": "uint256"
        }
      ],
      "stateMutability": "view",
      "type": "function"
    },
    {
      "inputs": [
        {
          "internalType": "address",
          "name": "",
          "type": "address"
        }
      ],
      "name": "creds",
      "outputs": [
        {
          "internalType": "string",
          "name": "",
          "type": "string"
        }
      ],
      "stateMutability": "view",
      "type": "function"
    },
    {
      "inputs": [
        {
          "internalType": "address",
          "name": "to",
          "type": "address"
        },
        {
          "internalType": "string",
          "name": "uri",
          "type": "string"
        }
      ],
      "name": "endorseMint",
      "outputs": [],
      "stateMutability": "nonpayable",
      "type": "function"
    },
    {
      "inputs": [],
      "name": "getAccounts",
      "outputs": [
        {
          "internalType": "address[]",
          "name": "",
          "type": "address[]"
        }
      ],
      "stateMutability": "view",
      "type": "function"
    },
    {
      "inputs": [
        {
          "internalType": "uint256",
          "name": "tokenId",
          "type": "uint256"
        }
      ],
      "name": "getApproved",
      "outputs": [
        {
          "internalType": "address",
          "name": "",
          "type": "address"
        }
      ],
      "stateMutability": "view",
      "type": "function"
    },
    {
      "inputs": [
        {
          "internalType": "address",
          "name": "_address",
          "type": "address"
        }
      ],
      "name": "getEndorsementCheck",
      "outputs": [
        {
          "internalType": "uint256",
          "name": "",
          "type": "uint256"
        }
      ],
      "stateMutability": "view",
      "type": "function"
    },
    {
      "inputs": [
        {
          "internalType": "address",
          "name": "_address",
          "type": "address"
        }
      ],
      "name": "getEndorsements",
      "outputs": [
        {
          "internalType": "uint256",
          "name": "",
          "type": "uint256"
        }
      ],
      "stateMutability": "view",
      "type": "function"
    },
    {
      "inputs": [],
      "name": "getTokenId",
      "outputs": [
        {
          "internalType": "uint256",
          "name": "",
          "type": "uint256"
        }
      ],
      "stateMutability": "view",
      "type": "function"
    },
    {
      "inputs": [
        {
          "internalType": "address",
          "name": "_address",
          "type": "address"
        }
      ],
      "name": "getTokenIdAccount",
      "outputs": [
        {
          "internalType": "uint256[]",
          "name": "",
          "type": "uint256[]"
        }
      ],
      "stateMutability": "view",
      "type": "function"
    },
    {
      "inputs": [],
      "name": "getTotalMints",
      "outputs": [
        {
          "internalType": "uint256",
          "name": "",
          "type": "uint256"
        }
      ],
      "stateMutability": "view",
      "type": "function"
    },
    {
      "inputs": [
        {
          "internalType": "address",
          "name": "_new",
          "type": "address"
        }
      ],
      "name": "getVal",
      "outputs": [
        {
          "internalType": "string",
          "name": "",
          "type": "string"
        }
      ],
      "stateMutability": "view",
      "type": "function"
    },
    {
      "inputs": [
        {
          "internalType": "address",
          "name": "owner",
          "type": "address"
        },
        {
          "internalType": "address",
          "name": "operator",
          "type": "address"
        }
      ],
      "name": "isApprovedForAll",
      "outputs": [
        {
          "internalType": "bool",
          "name": "",
          "type": "bool"
        }
      ],
      "stateMutability": "view",
      "type": "function"
    },
    {
      "inputs": [
        {
          "internalType": "address[]",
          "name": "_to",
          "type": "address[]"
        },
        {
          "internalType": "string[]",
          "name": "_uri",
          "type": "string[]"
        }
      ],
      "name": "mintBatch",
      "outputs": [],
      "stateMutability": "nonpayable",
      "type": "function"
    },
    {
      "inputs": [],
      "name": "name",
      "outputs": [
        {
          "internalType": "string",
          "name": "",
          "type": "string"
        }
      ],
      "stateMutability": "view",
      "type": "function"
    },
    {
      "inputs": [],
      "name": "owner",
      "outputs": [
        {
          "internalType": "address",
          "name": "",
          "type": "address"
        }
      ],
      "stateMutability": "view",
      "type": "function"
    },
    {
      "inputs": [
        {
          "internalType": "uint256",
          "name": "tokenId",
          "type": "uint256"
        }
      ],
      "name": "ownerOf",
      "outputs": [
        {
          "internalType": "address",
          "name": "",
          "type": "address"
        }
      ],
      "stateMutability": "view",
      "type": "function"
    },
    {
      "inputs": [
        {
          "internalType": "address",
          "name": "to",
          "type": "address"
        },
        {
          "internalType": "string",
          "name": "uri",
          "type": "string"
        }
      ],
      "name": "safeMint",
      "outputs": [],
      "stateMutability": "nonpayable",
      "type": "function"
    },
    {
      "inputs": [
        {
          "internalType": "address",
          "name": "from",
          "type": "address"
        },
        {
          "internalType": "address",
          "name": "to",
          "type": "address"
        },
        {
          "internalType": "uint256",
          "name": "tokenId",
          "type": "uint256"
        }
      ],
      "name": "safeTransferFrom",
      "outputs": [],
      "stateMutability": "nonpayable",
      "type": "function"
    },
    {
      "inputs": [
        {
          "internalType": "address",
          "name": "from",
          "type": "address"
        },
        {
          "internalType": "address",
          "name": "to",
          "type": "address"
        },
        {
          "internalType": "uint256",
          "name": "tokenId",
          "type": "uint256"
        },
        {
          "internalType": "bytes",
          "name": "data",
          "type": "bytes"
        }
      ],
      "name": "safeTransferFrom",
      "outputs": [],
      "stateMutability": "nonpayable",
      "type": "function"
    },
    {
      "inputs": [
        {
          "internalType": "address",
          "name": "operator",
          "type": "address"
        },
        {
          "internalType": "bool",
          "name": "approved",
          "type": "bool"
        }
      ],
      "name": "setApprovalForAll",
      "outputs": [],
      "stateMutability": "nonpayable",
      "type": "function"
    },
    {
      "inputs": [
        {
          "internalType": "bytes4",
          "name": "interfaceId",
          "type": "bytes4"
        }
      ],
      "name": "supportsInterface",
      "outputs": [
        {
          "internalType": "bool",
          "name": "",
          "type": "bool"
        }
      ],
      "stateMutability": "view",
      "type": "function"
    },
    {
      "inputs": [],
      "name": "symbol",
      "outputs": [
        {
          "internalType": "string",
          "name": "",
          "type": "string"
        }
      ],
      "stateMutability": "view",
      "type": "function"
    },
    {
      "inputs": [
        {
          "internalType": "uint256",
          "name": "_tokenId",
          "type": "uint256"
        }
      ],
      "name": "tokenURI",
      "outputs": [
        {
          "internalType": "string",
          "name": "",
          "type": "string"
        }
      ],
      "stateMutability": "view",
      "type": "function"
    },
    {
      "inputs": [],
      "name": "total_mints",
      "outputs": [
        {
          "internalType": "uint256",
          "name": "",
          "type": "uint256"
        }
      ],
      "stateMutability": "view",
      "type": "function"
    },
    {
      "inputs": [
        {
          "internalType": "address",
          "name": "",
          "type": "address"
        }
      ],
      "name": "total_sbt_received_in_account",
      "outputs": [
        {
          "internalType": "uint256",
          "name": "",
          "type": "uint256"
        }
      ],
      "stateMutability": "view",
      "type": "function"
    },
    {
      "inputs": [
        {
          "internalType": "address",
          "name": "from",
          "type": "address"
        },
        {
          "internalType": "address",
          "name": "to",
          "type": "address"
        },
        {
          "internalType": "uint256",
          "name": "tokenId",
          "type": "uint256"
        }
      ],
      "name": "transferFrom",
      "outputs": [],
      "stateMutability": "nonpayable",
      "type": "function"
    }
  ],
  "bytecode": "0x608060405261dead600f60006101000a81548173ffffffffffffffffffffffffffffffffffffffff021916908373ffffffffffffffffffffffffffffffffffffffff1602179055506040516200005590620002ca565b604051809103906000f08015801562000072573d6000803e3d6000fd5b50601060006101000a81548173ffffffffffffffffffffffffffffffffffffffff021916908373ffffffffffffffffffffffffffffffffffffffff160217905550348015620000c057600080fd5b506040518060400160405280600e81526020017f536f756c426f756e64546f6b656e0000000000000000000000000000000000008152506040518060400160405280600381526020017f534254000000000000000000000000000000000000000000000000000000000081525081600090816200013e919062000552565b50806001908162000150919062000552565b5050506040518060400160405280600381526020017f31323300000000000000000000000000000000000000000000000000000000008152506007600073dc737bc0b2174a5d4a8ca7b588905c7770c671ee73ffffffffffffffffffffffffffffffffffffffff1673ffffffffffffffffffffffffffffffffffffffff1681526020019081526020016000209081620001ea919062000552565b506040518060400160405280600381526020017f343536000000000000000000000000000000000000000000000000000000000081525060076000735b38da6a701c568545dcfcb03fcb875f56beddc473ffffffffffffffffffffffffffffffffffffffff1673ffffffffffffffffffffffffffffffffffffffff168152602001908152602001600020908162000282919062000552565b5033600e60006101000a81548173ffffffffffffffffffffffffffffffffffffffff021916908373ffffffffffffffffffffffffffffffffffffffff16021790555062000639565b610b678062004bdd83390190565b600081519050919050565b7f4e487b7100000000000000000000000000000000000000000000000000000000600052604160045260246000fd5b7f4e487b7100000000000000000000000000000000000000000000000000000000600052602260045260246000fd5b600060028204905060018216806200035a57607f821691505b60208210810362000370576200036f62000312565b5b50919050565b60008190508160005260206000209050919050565b60006020601f8301049050919050565b600082821b905092915050565b600060088302620003da7fffffffffffffffffffffffffffffffffffffffffffffffffffffffffffffffff826200039b565b620003e686836200039b565b95508019841693508086168417925050509392505050565b6000819050919050565b6000819050919050565b6000620004336200042d6200042784620003fe565b62000408565b620003fe565b9050919050565b6000819050919050565b6200044f8362000412565b620004676200045e826200043a565b848454620003a8565b825550505050565b600090565b6200047e6200046f565b6200048b81848462000444565b505050565b5b81811015620004b357620004a760008262000474565b60018101905062000491565b5050565b601f8211156200050257620004cc8162000376565b620004d7846200038b565b81016020851015620004e7578190505b620004ff620004f6856200038b565b83018262000490565b50505b505050565b600082821c905092915050565b6000620005276000198460080262000507565b1980831691505092915050565b600062000542838362000514565b9150826002028217905092915050565b6200055d82620002d8565b67ffffffffffffffff811115620005795762000578620002e3565b5b62000585825462000341565b62000592828285620004b7565b600060209050601f831160018114620005ca5760008415620005b5578287015190505b620005c1858262000534565b86555062000631565b601f198416620005da8662000376565b60005b828110156200060457848901518255600182019150602085019450602081019050620005dd565b8683101562000624578489015162000620601f89168262000514565b8355505b6001600288020188555050505b505050505050565b61459480620006496000396000f3fe608060405234801561001057600080fd5b50600436106101a95760003560e01c806370a08231116100f9578063a248550f11610097578063b88d4fde11610071578063b88d4fde14610508578063c87b56dd14610524578063d204c45e14610554578063e985e9c514610570576101a9565b8063a248550f14610478578063ad3ae1bb146104a8578063b666ca9d146104d8576101a9565b80638da5cb5b116100d35780638da5cb5b14610404578063924cff6d1461042257806395d89b411461043e578063a22cb4651461045c576101a9565b806370a082311461038657806388ee8afb146103b65780638a48ac03146103e6576101a9565b806323b872dd1161016657806342842e0e1161014057806342842e0e146102ec5780635683a976146103085780636352211e146103385780636ec0dfe514610368576101a9565b806323b872dd1461028257806328b22d8c1461029e5780632b37e067146102ce576101a9565b8063010a38f5146101ae57806301ffc9a7146101cc57806306fdde03146101fc578063081812fc1461021a578063095ea7b31461024a578063107c1cf414610266575b600080fd5b6101b66105a0565b6040516101c39190612ab8565b60405180910390f35b6101e660048036038101906101e19190612b3f565b6105aa565b6040516101f39190612b87565b60405180910390f35b61020461068c565b6040516102119190612c32565b60405180910390f35b610234600480360381019061022f9190612c80565b61071e565b6040516102419190612cee565b60405180910390f35b610264600480360381019061025f9190612d35565b610764565b005b610280600480360381019061027b9190612eaa565b61087b565b005b61029c60048036038101906102979190612f06565b610c25565b005b6102b860048036038101906102b39190612f59565b610c85565b6040516102c59190612c32565b60405180910390f35b6102d6610d56565b6040516102e39190612ab8565b60405180910390f35b61030660048036038101906103019190612f06565b610d5c565b005b610322600480360381019061031d9190612f59565b610d7c565b60405161032f9190612ab8565b60405180910390f35b610352600480360381019061034d9190612c80565b610d94565b60405161035f9190612cee565b60405180910390f35b610370610e45565b60405161037d9190612ab8565b60405180910390f35b6103a0600480360381019061039b9190612f59565b610e4f565b6040516103ad9190612ab8565b60405180910390f35b6103d060048036038101906103cb9190612f59565b610f06565b6040516103dd9190613044565b60405180910390f35b6103ee610f9d565b6040516103fb9190613124565b60405180910390f35b61040c61103a565b6040516104199190612cee565b60405180910390f35b61043c600480360381019061043791906132ef565b611060565b005b610446611331565b6040516104539190612c32565b60405180910390f35b61047660048036038101906104719190613393565b6113c3565b005b610492600480360381019061048d9190612f59565b6113d9565b60405161049f9190612ab8565b60405180910390f35b6104c260048036038101906104bd9190612f59565b611422565b6040516104cf9190612c32565b60405180910390f35b6104f260048036038101906104ed9190612f59565b6114c2565b6040516104ff9190612ab8565b60405180910390f35b610522600480360381019061051d9190613474565b61150b565b005b61053e60048036038101906105399190612c80565b61156d565b60405161054b9190612c32565b60405180910390f35b61056e60048036038101906105699190612eaa565b61157f565b005b61058a600480360381019061058591906134f7565b61183f565b6040516105979190612b87565b60405180910390f35b6000600d54905090565b60007f80ac58cd000000000000000000000000000000000000000000000000000000007bffffffffffffffffffffffffffffffffffffffffffffffffffffffff1916827bffffffffffffffffffffffffffffffffffffffffffffffffffffffff1916148061067557507f5b5e139f000000000000000000000000000000000000000000000000000000007bffffffffffffffffffffffffffffffffffffffffffffffffffffffff1916827bffffffffffffffffffffffffffffffffffffffffffffffffffffffff1916145b806106855750610684826118d3565b5b9050919050565b60606000805461069b90613566565b80601f01602080910402602001604051908101604052809291908181526020018280546106c790613566565b80156107145780601f106106e957610100808354040283529160200191610714565b820191906000526020600020905b8154815290600101906020018083116106f757829003601f168201915b5050505050905090565b60006107298261193d565b6004600083815260200190815260200160002060009054906101000a900473ffffffffffffffffffffffffffffffffffffffff169050919050565b600061076f82610d94565b90508073ffffffffffffffffffffffffffffffffffffffff168373ffffffffffffffffffffffffffffffffffffffff16036107df576040517f08c379a00000000000000000000000000000000000000000000000000000000081526004016107d690613609565b60405180910390fd5b8073ffffffffffffffffffffffffffffffffffffffff166107fe611988565b73ffffffffffffffffffffffffffffffffffffffff16148061082d575061082c81610827611988565b61183f565b5b61086c576040517f08c379a00000000000000000000000000000000000000000000000000000000081526004016108639061369b565b60405180910390fd5b6108768383611990565b505050565b6000600a60003373ffffffffffffffffffffffffffffffffffffffff1673ffffffffffffffffffffffffffffffffffffffff1681526020019081526020016000205411801561090957506000600960003373ffffffffffffffffffffffffffffffffffffffff1673ffffffffffffffffffffffffffffffffffffffff16815260200190815260200160002054115b806109615750600e60009054906101000a900473ffffffffffffffffffffffffffffffffffffffff1673ffffffffffffffffffffffffffffffffffffffff163373ffffffffffffffffffffffffffffffffffffffff16145b6109a0576040517f08c379a000000000000000000000000000000000000000000000000000000000815260040161099790613707565b60405180910390fd5b6001600d60008282546109b39190613756565b925050819055506109c682600d54611a49565b6109d2600d5482611a67565b601060009054906101000a900473ffffffffffffffffffffffffffffffffffffffff1673ffffffffffffffffffffffffffffffffffffffff16630a3b0a4f836040518263ffffffff1660e01b8152600401610a2d9190612cee565b600060405180830381600087803b158015610a4757600080fd5b505af1158015610a5b573d6000803e3d6000fd5b50505050600160086000828254610a729190613756565b925050819055506001600960008473ffffffffffffffffffffffffffffffffffffffff1673ffffffffffffffffffffffffffffffffffffffff1681526020019081526020016000206000828254610ac99190613756565b925050819055506001600b60008473ffffffffffffffffffffffffffffffffffffffff1673ffffffffffffffffffffffffffffffffffffffff1681526020019081526020016000206000828254610b209190613756565b925050819055506001600a60003373ffffffffffffffffffffffffffffffffffffffff1673ffffffffffffffffffffffffffffffffffffffff1681526020019081526020016000206000828254610b77919061378a565b92505081905550600c60008373ffffffffffffffffffffffffffffffffffffffff1673ffffffffffffffffffffffffffffffffffffffff168152602001908152602001600020600d5490806001815401808255809150506001900390600052602060002001600090919091909150557f77f91bdebd7f97812a24eb286a00580068fdacb7a504e805c0db14273fb32d6e338383604051610c19939291906137be565b60405180910390a15050565b610c36610c30611988565b82611ad4565b610c75576040517f08c379a0000000000000000000000000000000000000000000000000000000008152600401610c6c9061386e565b60405180910390fd5b610c80838383611b69565b505050565b6060600760008373ffffffffffffffffffffffffffffffffffffffff1673ffffffffffffffffffffffffffffffffffffffff1681526020019081526020016000208054610cd190613566565b80601f0160208091040260200160405190810160405280929190818152602001828054610cfd90613566565b8015610d4a5780601f10610d1f57610100808354040283529160200191610d4a565b820191906000526020600020905b815481529060010190602001808311610d2d57829003601f168201915b50505050509050919050565b60085481565b610d778383836040518060200160405280600081525061150b565b505050565b60096020528060005260406000206000915090505481565b6000806002600084815260200190815260200160002060009054906101000a900473ffffffffffffffffffffffffffffffffffffffff169050600073ffffffffffffffffffffffffffffffffffffffff168173ffffffffffffffffffffffffffffffffffffffff1603610e3c576040517f08c379a0000000000000000000000000000000000000000000000000000000008152600401610e33906138da565b60405180910390fd5b80915050919050565b6000600854905090565b60008073ffffffffffffffffffffffffffffffffffffffff168273ffffffffffffffffffffffffffffffffffffffff1603610ebf576040517f08c379a0000000000000000000000000000000000000000000000000000000008152600401610eb69061396c565b60405180910390fd5b600360008373ffffffffffffffffffffffffffffffffffffffff1673ffffffffffffffffffffffffffffffffffffffff168152602001908152602001600020549050919050565b6060600c60008373ffffffffffffffffffffffffffffffffffffffff1673ffffffffffffffffffffffffffffffffffffffff168152602001908152602001600020805480602002602001604051908101604052809291908181526020018280548015610f9157602002820191906000526020600020905b815481526020019060010190808311610f7d575b50505050509050919050565b6060601060009054906101000a900473ffffffffffffffffffffffffffffffffffffffff1673ffffffffffffffffffffffffffffffffffffffff1663410d59cc6040518163ffffffff1660e01b8152600401600060405180830381865afa15801561100c573d6000803e3d6000fd5b505050506040513d6000823e3d601f19601f820116820180604052508101906110359190613a38565b905090565b600e60009054906101000a900473ffffffffffffffffffffffffffffffffffffffff1681565b600e60009054906101000a900473ffffffffffffffffffffffffffffffffffffffff1673ffffffffffffffffffffffffffffffffffffffff163373ffffffffffffffffffffffffffffffffffffffff16146110f0576040517f08c379a00000000000000000000000000000000000000000000000000000000081526004016110e790613acd565b60405180910390fd5b60005b82518110156112f3576001600d600082825461110f9190613756565b9250508190555061113c83828151811061112c5761112b613aed565b5b6020026020010151600d54611a49565b611162600d5483838151811061115557611154613aed565b5b6020026020010151611a67565b6001600860008282546111759190613756565b9250508190555060016009600085848151811061119557611194613aed565b5b602002602001015173ffffffffffffffffffffffffffffffffffffffff1673ffffffffffffffffffffffffffffffffffffffff16815260200190815260200160002060008282546111e69190613756565b925050819055506001600a600085848151811061120657611205613aed565b5b602002602001015173ffffffffffffffffffffffffffffffffffffffff1673ffffffffffffffffffffffffffffffffffffffff16815260200190815260200160002060008282546112579190613756565b92505081905550600c600084838151811061127557611274613aed565b5b602002602001015173ffffffffffffffffffffffffffffffffffffffff1673ffffffffffffffffffffffffffffffffffffffff168152602001908152602001600020600d54908060018154018082558091505060019003906000526020600020016000909190919091505580806112eb90613b1c565b9150506110f3565b507fdbdfe27cc8c62cbd6e437cde4115aa8e28e45ab0581f9720b55b3c41141fdc138282604051611325929190613c70565b60405180910390a15050565b60606001805461134090613566565b80601f016020809104026020016040519081016040528092919081815260200182805461136c90613566565b80156113b95780601f1061138e576101008083540402835291602001916113b9565b820191906000526020600020905b81548152906001019060200180831161139c57829003601f168201915b5050505050905090565b6113d56113ce611988565b8383611dcf565b5050565b6000600a60008373ffffffffffffffffffffffffffffffffffffffff1673ffffffffffffffffffffffffffffffffffffffff168152602001908152602001600020549050919050565b6007602052806000526040600020600091509050805461144190613566565b80601f016020809104026020016040519081016040528092919081815260200182805461146d90613566565b80156114ba5780601f1061148f576101008083540402835291602001916114ba565b820191906000526020600020905b81548152906001019060200180831161149d57829003601f168201915b505050505081565b6000600b60008373ffffffffffffffffffffffffffffffffffffffff1673ffffffffffffffffffffffffffffffffffffffff168152602001908152602001600020549050919050565b61151c611516611988565b83611ad4565b61155b576040517f08c379a00000000000000000000000000000000000000000000000000000000081526004016115529061386e565b60405180910390fd5b61156784848484611f3b565b50505050565b606061157882611f97565b9050919050565b600e60009054906101000a900473ffffffffffffffffffffffffffffffffffffffff1673ffffffffffffffffffffffffffffffffffffffff163373ffffffffffffffffffffffffffffffffffffffff161461160f576040517f08c379a000000000000000000000000000000000000000000000000000000000815260040161160690613acd565b60405180910390fd5b6001600d60008282546116229190613756565b9250508190555061163582600d54611a49565b611641600d5482611a67565b601060009054906101000a900473ffffffffffffffffffffffffffffffffffffffff1673ffffffffffffffffffffffffffffffffffffffff16630a3b0a4f836040518263ffffffff1660e01b815260040161169c9190612cee565b600060405180830381600087803b1580156116b657600080fd5b505af11580156116ca573d6000803e3d6000fd5b505050506001600860008282546116e19190613756565b925050819055506001600960008473ffffffffffffffffffffffffffffffffffffffff1673ffffffffffffffffffffffffffffffffffffffff16815260200190815260200160002060008282546117389190613756565b925050819055506001600a60008473ffffffffffffffffffffffffffffffffffffffff1673ffffffffffffffffffffffffffffffffffffffff168152602001908152602001600020600082825461178f9190613756565b92505081905550600c60008373ffffffffffffffffffffffffffffffffffffffff1673ffffffffffffffffffffffffffffffffffffffff168152602001908152602001600020600d5490806001815401808255809150506001900390600052602060002001600090919091909150557fe7cd4ce7f2a465edc730269a1305e8a48bad821e8fb7e152ec413829c01a53c482600d548360405161183393929190613ca7565b60405180910390a15050565b6000600560008473ffffffffffffffffffffffffffffffffffffffff1673ffffffffffffffffffffffffffffffffffffffff16815260200190815260200160002060008373ffffffffffffffffffffffffffffffffffffffff1673ffffffffffffffffffffffffffffffffffffffff16815260200190815260200160002060009054906101000a900460ff16905092915050565b60007f01ffc9a7000000000000000000000000000000000000000000000000000000007bffffffffffffffffffffffffffffffffffffffffffffffffffffffff1916827bffffffffffffffffffffffffffffffffffffffffffffffffffffffff1916149050919050565b611946816120a9565b611985576040517f08c379a000000000000000000000000000000000000000000000000000000000815260040161197c906138da565b60405180910390fd5b50565b600033905090565b816004600083815260200190815260200160002060006101000a81548173ffffffffffffffffffffffffffffffffffffffff021916908373ffffffffffffffffffffffffffffffffffffffff160217905550808273ffffffffffffffffffffffffffffffffffffffff16611a0383610d94565b73ffffffffffffffffffffffffffffffffffffffff167f8c5be1e5ebec7d5bd14f71427d1e84f3dd0314c0f7b2291e5b200ac8c7c3b92560405160405180910390a45050565b611a63828260405180602001604052806000815250612115565b5050565b611a70826120a9565b611aaf576040517f08c379a0000000000000000000000000000000000000000000000000000000008152600401611aa690613d57565b60405180910390fd5b80600660008481526020019081526020016000209081611acf9190613f23565b505050565b600080611ae083610d94565b90508073ffffffffffffffffffffffffffffffffffffffff168473ffffffffffffffffffffffffffffffffffffffff161480611b225750611b21818561183f565b5b80611b6057508373ffffffffffffffffffffffffffffffffffffffff16611b488461071e565b73ffffffffffffffffffffffffffffffffffffffff16145b91505092915050565b8273ffffffffffffffffffffffffffffffffffffffff16611b8982610d94565b73ffffffffffffffffffffffffffffffffffffffff1614611bdf576040517f08c379a0000000000000000000000000000000000000000000000000000000008152600401611bd690614067565b60405180910390fd5b600073ffffffffffffffffffffffffffffffffffffffff168273ffffffffffffffffffffffffffffffffffffffff1603611c4e576040517f08c379a0000000000000000000000000000000000000000000000000000000008152600401611c45906140f9565b60405180910390fd5b611c59838383612170565b611c64600082611990565b6001600360008573ffffffffffffffffffffffffffffffffffffffff1673ffffffffffffffffffffffffffffffffffffffff1681526020019081526020016000206000828254611cb4919061378a565b925050819055506001600360008473ffffffffffffffffffffffffffffffffffffffff1673ffffffffffffffffffffffffffffffffffffffff1681526020019081526020016000206000828254611d0b9190613756565b92505081905550816002600083815260200190815260200160002060006101000a81548173ffffffffffffffffffffffffffffffffffffffff021916908373ffffffffffffffffffffffffffffffffffffffff160217905550808273ffffffffffffffffffffffffffffffffffffffff168473ffffffffffffffffffffffffffffffffffffffff167fddf252ad1be2c89b69c2b068fc378daa952ba7f163c4a11628f55a4df523b3ef60405160405180910390a4611dca838383612533565b505050565b8173ffffffffffffffffffffffffffffffffffffffff168373ffffffffffffffffffffffffffffffffffffffff1603611e3d576040517f08c379a0000000000000000000000000000000000000000000000000000000008152600401611e3490614165565b60405180910390fd5b80600560008573ffffffffffffffffffffffffffffffffffffffff1673ffffffffffffffffffffffffffffffffffffffff16815260200190815260200160002060008473ffffffffffffffffffffffffffffffffffffffff1673ffffffffffffffffffffffffffffffffffffffff16815260200190815260200160002060006101000a81548160ff0219169083151502179055508173ffffffffffffffffffffffffffffffffffffffff168373ffffffffffffffffffffffffffffffffffffffff167f17307eab39ab6107e8899845ad3d59bd9653f200f220920489ca2b5937696c3183604051611f2e9190612b87565b60405180910390a3505050565b611f46848484611b69565b611f5284848484612538565b611f91576040517f08c379a0000000000000000000000000000000000000000000000000000000008152600401611f88906141f7565b60405180910390fd5b50505050565b6060611fa28261193d565b6000600660008481526020019081526020016000208054611fc290613566565b80601f0160208091040260200160405190810160405280929190818152602001828054611fee90613566565b801561203b5780601f106120105761010080835404028352916020019161203b565b820191906000526020600020905b81548152906001019060200180831161201e57829003601f168201915b50505050509050600061204c6126bf565b905060008151036120615781925050506120a4565b60008251111561209657808260405160200161207e929190614253565b604051602081830303815290604052925050506120a4565b61209f846126d6565b925050505b919050565b60008073ffffffffffffffffffffffffffffffffffffffff166002600084815260200190815260200160002060009054906101000a900473ffffffffffffffffffffffffffffffffffffffff1673ffffffffffffffffffffffffffffffffffffffff1614159050919050565b61211f838361273e565b61212c6000848484612538565b61216b576040517f08c379a0000000000000000000000000000000000000000000000000000000008152600401612162906141f7565b60405180910390fd5b505050565b600073ffffffffffffffffffffffffffffffffffffffff168373ffffffffffffffffffffffffffffffffffffffff1614806121f85750600f60009054906101000a900473ffffffffffffffffffffffffffffffffffffffff1673ffffffffffffffffffffffffffffffffffffffff168273ffffffffffffffffffffffffffffffffffffffff16145b612237576040517f08c379a000000000000000000000000000000000000000000000000000000000815260040161222e906142c3565b60405180910390fd5b612242838383612917565b600f60009054906101000a900473ffffffffffffffffffffffffffffffffffffffff1673ffffffffffffffffffffffffffffffffffffffff168273ffffffffffffffffffffffffffffffffffffffff160361252e576001600960008573ffffffffffffffffffffffffffffffffffffffff1673ffffffffffffffffffffffffffffffffffffffff16815260200190815260200160002060008282546122e7919061378a565b92505081905550600080600090505b600c60008673ffffffffffffffffffffffffffffffffffffffff1673ffffffffffffffffffffffffffffffffffffffff168152602001908152602001600020805490508110156123bd5782600c60008773ffffffffffffffffffffffffffffffffffffffff1673ffffffffffffffffffffffffffffffffffffffff168152602001908152602001600020828154811061239257612391613aed565b5b9060005260206000200154036123aa578091506123bd565b80806123b590613b1c565b9150506122f6565b50600c60008573ffffffffffffffffffffffffffffffffffffffff1673ffffffffffffffffffffffffffffffffffffffff1681526020019081526020016000206001600c60008773ffffffffffffffffffffffffffffffffffffffff1673ffffffffffffffffffffffffffffffffffffffff1681526020019081526020016000208054905061244c919061378a565b8154811061245d5761245c613aed565b5b9060005260206000200154600c60008673ffffffffffffffffffffffffffffffffffffffff1673ffffffffffffffffffffffffffffffffffffffff16815260200190815260200160002082815481106124b9576124b8613aed565b5b9060005260206000200181905550600c60008573ffffffffffffffffffffffffffffffffffffffff1673ffffffffffffffffffffffffffffffffffffffff168152602001908152602001600020805480612516576125156142e3565b5b60019003818190600052602060002001600090559055505b505050565b505050565b60006125598473ffffffffffffffffffffffffffffffffffffffff1661291c565b156126b2578373ffffffffffffffffffffffffffffffffffffffff1663150b7a02612582611988565b8786866040518563ffffffff1660e01b81526004016125a49493929190614367565b6020604051808303816000875af19250505080156125e057506040513d601f19601f820116820180604052508101906125dd91906143c8565b60015b612662573d8060008114612610576040519150601f19603f3d011682016040523d82523d6000602084013e612615565b606091505b50600081510361265a576040517f08c379a0000000000000000000000000000000000000000000000000000000008152600401612651906141f7565b60405180910390fd5b805181602001fd5b63150b7a0260e01b7bffffffffffffffffffffffffffffffffffffffffffffffffffffffff1916817bffffffffffffffffffffffffffffffffffffffffffffffffffffffff1916149150506126b7565b600190505b949350505050565b606060405180602001604052806000815250905090565b60606126e18261193d565b60006126eb6126bf565b9050600081511161270b5760405180602001604052806000815250612736565b806127158461293f565b604051602001612726929190614253565b6040516020818303038152906040525b915050919050565b600073ffffffffffffffffffffffffffffffffffffffff168273ffffffffffffffffffffffffffffffffffffffff16036127ad576040517f08c379a00000000000000000000000000000000000000000000000000000000081526004016127a490614441565b60405180910390fd5b6127b6816120a9565b156127f6576040517f08c379a00000000000000000000000000000000000000000000000000000000081526004016127ed906144ad565b60405180910390fd5b61280260008383612170565b6001600360008473ffffffffffffffffffffffffffffffffffffffff1673ffffffffffffffffffffffffffffffffffffffff16815260200190815260200160002060008282546128529190613756565b92505081905550816002600083815260200190815260200160002060006101000a81548173ffffffffffffffffffffffffffffffffffffffff021916908373ffffffffffffffffffffffffffffffffffffffff160217905550808273ffffffffffffffffffffffffffffffffffffffff16600073ffffffffffffffffffffffffffffffffffffffff167fddf252ad1be2c89b69c2b068fc378daa952ba7f163c4a11628f55a4df523b3ef60405160405180910390a461291360008383612533565b5050565b505050565b6000808273ffffffffffffffffffffffffffffffffffffffff163b119050919050565b606060008203612986576040518060400160405280600181526020017f30000000000000000000000000000000000000000000000000000000000000008152509050612a9a565b600082905060005b600082146129b85780806129a190613b1c565b915050600a826129b191906144fc565b915061298e565b60008167ffffffffffffffff8111156129d4576129d3612d7f565b5b6040519080825280601f01601f191660200182016040528015612a065781602001600182028036833780820191505090505b5090505b60008514612a9357600182612a1f919061378a565b9150600a85612a2e919061452d565b6030612a3a9190613756565b60f81b818381518110612a5057612a4f613aed565b5b60200101907effffffffffffffffffffffffffffffffffffffffffffffffffffffffffffff1916908160001a905350600a85612a8c91906144fc565b9450612a0a565b8093505050505b919050565b6000819050919050565b612ab281612a9f565b82525050565b6000602082019050612acd6000830184612aa9565b92915050565b6000604051905090565b600080fd5b600080fd5b60007fffffffff0000000000000000000000000000000000000000000000000000000082169050919050565b612b1c81612ae7565b8114612b2757600080fd5b50565b600081359050612b3981612b13565b92915050565b600060208284031215612b5557612b54612add565b5b6000612b6384828501612b2a565b91505092915050565b60008115159050919050565b612b8181612b6c565b82525050565b6000602082019050612b9c6000830184612b78565b92915050565b600081519050919050565b600082825260208201905092915050565b60005b83811015612bdc578082015181840152602081019050612bc1565b60008484015250505050565b6000601f19601f8301169050919050565b6000612c0482612ba2565b612c0e8185612bad565b9350612c1e818560208601612bbe565b612c2781612be8565b840191505092915050565b60006020820190508181036000830152612c4c8184612bf9565b905092915050565b612c5d81612a9f565b8114612c6857600080fd5b50565b600081359050612c7a81612c54565b92915050565b600060208284031215612c9657612c95612add565b5b6000612ca484828501612c6b565b91505092915050565b600073ffffffffffffffffffffffffffffffffffffffff82169050919050565b6000612cd882612cad565b9050919050565b612ce881612ccd565b82525050565b6000602082019050612d036000830184612cdf565b92915050565b612d1281612ccd565b8114612d1d57600080fd5b50565b600081359050612d2f81612d09565b92915050565b60008060408385031215612d4c57612d4b612add565b5b6000612d5a85828601612d20565b9250506020612d6b85828601612c6b565b9150509250929050565b600080fd5b600080fd5b7f4e487b7100000000000000000000000000000000000000000000000000000000600052604160045260246000fd5b612db782612be8565b810181811067ffffffffffffffff82111715612dd657612dd5612d7f565b5b80604052505050565b6000612de9612ad3565b9050612df58282612dae565b919050565b600067ffffffffffffffff821115612e1557612e14612d7f565b5b612e1e82612be8565b9050602081019050919050565b82818337600083830152505050565b6000612e4d612e4884612dfa565b612ddf565b905082815260208101848484011115612e6957612e68612d7a565b5b612e74848285612e2b565b509392505050565b600082601f830112612e9157612e90612d75565b5b8135612ea1848260208601612e3a565b91505092915050565b60008060408385031215612ec157612ec0612add565b5b6000612ecf85828601612d20565b925050602083013567ffffffffffffffff811115612ef057612eef612ae2565b5b612efc85828601612e7c565b9150509250929050565b600080600060608486031215612f1f57612f1e612add565b5b6000612f2d86828701612d20565b9350506020612f3e86828701612d20565b9250506040612f4f86828701612c6b565b9150509250925092565b600060208284031215612f6f57612f6e612add565b5b6000612f7d84828501612d20565b91505092915050565b600081519050919050565b600082825260208201905092915050565b6000819050602082019050919050565b612fbb81612a9f565b82525050565b6000612fcd8383612fb2565b60208301905092915050565b6000602082019050919050565b6000612ff182612f86565b612ffb8185612f91565b935061300683612fa2565b8060005b8381101561303757815161301e8882612fc1565b975061302983612fd9565b92505060018101905061300a565b5085935050505092915050565b6000602082019050818103600083015261305e8184612fe6565b905092915050565b600081519050919050565b600082825260208201905092915050565b6000819050602082019050919050565b61309b81612ccd565b82525050565b60006130ad8383613092565b60208301905092915050565b6000602082019050919050565b60006130d182613066565b6130db8185613071565b93506130e683613082565b8060005b838110156131175781516130fe88826130a1565b9750613109836130b9565b9250506001810190506130ea565b5085935050505092915050565b6000602082019050818103600083015261313e81846130c6565b905092915050565b600067ffffffffffffffff82111561316157613160612d7f565b5b602082029050602081019050919050565b600080fd5b600061318a61318584613146565b612ddf565b905080838252602082019050602084028301858111156131ad576131ac613172565b5b835b818110156131d657806131c28882612d20565b8452602084019350506020810190506131af565b5050509392505050565b600082601f8301126131f5576131f4612d75565b5b8135613205848260208601613177565b91505092915050565b600067ffffffffffffffff82111561322957613228612d7f565b5b602082029050602081019050919050565b600061324d6132488461320e565b612ddf565b905080838252602082019050602084028301858111156132705761326f613172565b5b835b818110156132b757803567ffffffffffffffff81111561329557613294612d75565b5b8086016132a28982612e7c565b85526020850194505050602081019050613272565b5050509392505050565b600082601f8301126132d6576132d5612d75565b5b81356132e684826020860161323a565b91505092915050565b6000806040838503121561330657613305612add565b5b600083013567ffffffffffffffff81111561332457613323612ae2565b5b613330858286016131e0565b925050602083013567ffffffffffffffff81111561335157613350612ae2565b5b61335d858286016132c1565b9150509250929050565b61337081612b6c565b811461337b57600080fd5b50565b60008135905061338d81613367565b92915050565b600080604083850312156133aa576133a9612add565b5b60006133b885828601612d20565b92505060206133c98582860161337e565b9150509250929050565b600067ffffffffffffffff8211156133ee576133ed612d7f565b5b6133f782612be8565b9050602081019050919050565b6000613417613412846133d3565b612ddf565b90508281526020810184848401111561343357613432612d7a565b5b61343e848285612e2b565b509392505050565b600082601f83011261345b5761345a612d75565b5b813561346b848260208601613404565b91505092915050565b6000806000806080858703121561348e5761348d612add565b5b600061349c87828801612d20565b94505060206134ad87828801612d20565b93505060406134be87828801612c6b565b925050606085013567ffffffffffffffff8111156134df576134de612ae2565b5b6134eb87828801613446565b91505092959194509250565b6000806040838503121561350e5761350d612add565b5b600061351c85828601612d20565b925050602061352d85828601612d20565b9150509250929050565b7f4e487b7100000000000000000000000000000000000000000000000000000000600052602260045260246000fd5b6000600282049050600182168061357e57607f821691505b60208210810361359157613590613537565b5b50919050565b7f4552433732313a20617070726f76616c20746f2063757272656e74206f776e6560008201527f7200000000000000000000000000000000000000000000000000000000000000602082015250565b60006135f3602183612bad565b91506135fe82613597565b604082019050919050565b60006020820190508181036000830152613622816135e6565b9050919050565b7f4552433732313a20617070726f76652063616c6c6572206973206e6f7420746f60008201527f6b656e206f776e6572206e6f7220617070726f76656420666f7220616c6c0000602082015250565b6000613685603e83612bad565b915061369082613629565b604082019050919050565b600060208201905081810360008301526136b481613678565b9050919050565b7f456e646f7273656d656e74206e6f7420616c6c6f776564000000000000000000600082015250565b60006136f1601783612bad565b91506136fc826136bb565b602082019050919050565b60006020820190508181036000830152613720816136e4565b9050919050565b7f4e487b7100000000000000000000000000000000000000000000000000000000600052601160045260246000fd5b600061376182612a9f565b915061376c83612a9f565b925082820190508082111561378457613783613727565b5b92915050565b600061379582612a9f565b91506137a083612a9f565b92508282039050818111156137b8576137b7613727565b5b92915050565b60006060820190506137d36000830186612cdf565b6137e06020830185612cdf565b81810360408301526137f28184612bf9565b9050949350505050565b7f4552433732313a2063616c6c6572206973206e6f7420746f6b656e206f776e6560008201527f72206e6f7220617070726f766564000000000000000000000000000000000000602082015250565b6000613858602e83612bad565b9150613863826137fc565b604082019050919050565b600060208201905081810360008301526138878161384b565b9050919050565b7f4552433732313a20696e76616c696420746f6b656e2049440000000000000000600082015250565b60006138c4601883612bad565b91506138cf8261388e565b602082019050919050565b600060208201905081810360008301526138f3816138b7565b9050919050565b7f4552433732313a2061646472657373207a65726f206973206e6f74206120766160008201527f6c6964206f776e65720000000000000000000000000000000000000000000000602082015250565b6000613956602983612bad565b9150613961826138fa565b604082019050919050565b6000602082019050818103600083015261398581613949565b9050919050565b60008151905061399b81612d09565b92915050565b60006139b46139af84613146565b612ddf565b905080838252602082019050602084028301858111156139d7576139d6613172565b5b835b81811015613a0057806139ec888261398c565b8452602084019350506020810190506139d9565b5050509392505050565b600082601f830112613a1f57613a1e612d75565b5b8151613a2f8482602086016139a1565b91505092915050565b600060208284031215613a4e57613a4d612add565b5b600082015167ffffffffffffffff811115613a6c57613a6b612ae2565b5b613a7884828501613a0a565b91505092915050565b7f4e6f74206f776e65720000000000000000000000000000000000000000000000600082015250565b6000613ab7600983612bad565b9150613ac282613a81565b602082019050919050565b60006020820190508181036000830152613ae681613aaa565b9050919050565b7f4e487b7100000000000000000000000000000000000000000000000000000000600052603260045260246000fd5b6000613b2782612a9f565b91507fffffffffffffffffffffffffffffffffffffffffffffffffffffffffffffffff8203613b5957613b58613727565b5b600182019050919050565b600081519050919050565b600082825260208201905092915050565b6000819050602082019050919050565b600082825260208201905092915050565b6000613bac82612ba2565b613bb68185613b90565b9350613bc6818560208601612bbe565b613bcf81612be8565b840191505092915050565b6000613be68383613ba1565b905092915050565b6000602082019050919050565b6000613c0682613b64565b613c108185613b6f565b935083602082028501613c2285613b80565b8060005b85811015613c5e5784840389528151613c3f8582613bda565b9450613c4a83613bee565b925060208a01995050600181019050613c26565b50829750879550505050505092915050565b60006040820190508181036000830152613c8a81856130c6565b90508181036020830152613c9e8184613bfb565b90509392505050565b6000606082019050613cbc6000830186612cdf565b613cc96020830185612aa9565b8181036040830152613cdb8184612bf9565b9050949350505050565b7f45524337323155524953746f726167653a2055524920736574206f66206e6f6e60008201527f6578697374656e7420746f6b656e000000000000000000000000000000000000602082015250565b6000613d41602e83612bad565b9150613d4c82613ce5565b604082019050919050565b60006020820190508181036000830152613d7081613d34565b9050919050565b60008190508160005260206000209050919050565b60006020601f8301049050919050565b600082821b905092915050565b600060088302613dd97fffffffffffffffffffffffffffffffffffffffffffffffffffffffffffffffff82613d9c565b613de38683613d9c565b95508019841693508086168417925050509392505050565b6000819050919050565b6000613e20613e1b613e1684612a9f565b613dfb565b612a9f565b9050919050565b6000819050919050565b613e3a83613e05565b613e4e613e4682613e27565b848454613da9565b825550505050565b600090565b613e63613e56565b613e6e818484613e31565b505050565b5b81811015613e9257613e87600082613e5b565b600181019050613e74565b5050565b601f821115613ed757613ea881613d77565b613eb184613d8c565b81016020851015613ec0578190505b613ed4613ecc85613d8c565b830182613e73565b50505b505050565b600082821c905092915050565b6000613efa60001984600802613edc565b1980831691505092915050565b6000613f138383613ee9565b9150826002028217905092915050565b613f2c82612ba2565b67ffffffffffffffff811115613f4557613f44612d7f565b5b613f4f8254613566565b613f5a828285613e96565b600060209050601f831160018114613f8d5760008415613f7b578287015190505b613f858582613f07565b865550613fed565b601f198416613f9b86613d77565b60005b82811015613fc357848901518255600182019150602085019450602081019050613f9e565b86831015613fe05784890151613fdc601f891682613ee9565b8355505b6001600288020188555050505b505050505050565b7f4552433732313a207472616e736665722066726f6d20696e636f72726563742060008201527f6f776e6572000000000000000000000000000000000000000000000000000000602082015250565b6000614051602583612bad565b915061405c82613ff5565b604082019050919050565b6000602082019050818103600083015261408081614044565b9050919050565b7f4552433732313a207472616e7366657220746f20746865207a65726f2061646460008201527f7265737300000000000000000000000000000000000000000000000000000000602082015250565b60006140e3602483612bad565b91506140ee82614087565b604082019050919050565b60006020820190508181036000830152614112816140d6565b9050919050565b7f4552433732313a20617070726f766520746f2063616c6c657200000000000000600082015250565b600061414f601983612bad565b915061415a82614119565b602082019050919050565b6000602082019050818103600083015261417e81614142565b9050919050565b7f4552433732313a207472616e7366657220746f206e6f6e20455243373231526560008201527f63656976657220696d706c656d656e7465720000000000000000000000000000602082015250565b60006141e1603283612bad565b91506141ec82614185565b604082019050919050565b60006020820190508181036000830152614210816141d4565b9050919050565b600081905092915050565b600061422d82612ba2565b6142378185614217565b9350614247818560208601612bbe565b80840191505092915050565b600061425f8285614222565b915061426b8284614222565b91508190509392505050565b7f4572723a20746f6b656e207472616e7366657220697320424c4f434b45440000600082015250565b60006142ad601e83612bad565b91506142b882614277565b602082019050919050565b600060208201905081810360008301526142dc816142a0565b9050919050565b7f4e487b7100000000000000000000000000000000000000000000000000000000600052603160045260246000fd5b600081519050919050565b600082825260208201905092915050565b600061433982614312565b614343818561431d565b9350614353818560208601612bbe565b61435c81612be8565b840191505092915050565b600060808201905061437c6000830187612cdf565b6143896020830186612cdf565b6143966040830185612aa9565b81810360608301526143a8818461432e565b905095945050505050565b6000815190506143c281612b13565b92915050565b6000602082840312156143de576143dd612add565b5b60006143ec848285016143b3565b91505092915050565b7f4552433732313a206d696e7420746f20746865207a65726f2061646472657373600082015250565b600061442b602083612bad565b9150614436826143f5565b602082019050919050565b6000602082019050818103600083015261445a8161441e565b9050919050565b7f4552433732313a20746f6b656e20616c7265616479206d696e74656400000000600082015250565b6000614497601c83612bad565b91506144a282614461565b602082019050919050565b600060208201905081810360008301526144c68161448a565b9050919050565b7f4e487b7100000000000000000000000000000000000000000000000000000000600052601260045260246000fd5b600061450782612a9f565b915061451283612a9f565b925082614522576145216144cd565b5b828204905092915050565b600061453882612a9f565b915061454383612a9f565b925082614553576145526144cd565b5b82820690509291505056fea2646970667358221220c709820b812c5e987e6ecf7df49567b10b09d15ed4b5db215bc3829b39b5faea64736f6c63430008110033608060405234801561001057600080fd5b50610b47806100206000396000f3fe608060405234801561001057600080fd5b50600436106100885760003560e01c806352efea6e1161005b57806352efea6e14610113578063949d225d1461011d5780639507d39a1461013b578063fd6aad251461016b57610088565b80630a3b0a4f1461008d57806321887c3d146100a957806329092d0e146100d9578063410d59cc146100f5575b600080fd5b6100a760048036038101906100a291906107da565b61019b565b005b6100c360048036038101906100be91906107da565b610292565b6040516100d09190610822565b60405180910390f35b6100f360048036038101906100ee91906107da565b6102dd565b005b6100fd61054f565b60405161010a91906108fb565b60405180910390f35b61011b6105dd565b005b610125610692565b6040516101329190610936565b60405180910390f35b6101556004803603810190610150919061097d565b61069e565b60405161016291906109b9565b60405180910390f35b610185600480360381019061018091906107da565b6106e5565b6040516101929190610936565b60405180910390f35b6000600160008373ffffffffffffffffffffffffffffffffffffffff1673ffffffffffffffffffffffffffffffffffffffff168152602001908152602001600020540361028f576000819080600181540180825580915050600190039060005260206000200160009091909190916101000a81548173ffffffffffffffffffffffffffffffffffffffff021916908373ffffffffffffffffffffffffffffffffffffffff160217905550600080549050600160008373ffffffffffffffffffffffffffffffffffffffff1673ffffffffffffffffffffffffffffffffffffffff168152602001908152602001600020819055505b50565b600080600160008473ffffffffffffffffffffffffffffffffffffffff1673ffffffffffffffffffffffffffffffffffffffff16815260200190815260200160002054119050919050565b6000600160008373ffffffffffffffffffffffffffffffffffffffff1673ffffffffffffffffffffffffffffffffffffffff16815260200190815260200160002054111561054c57600060018060008473ffffffffffffffffffffffffffffffffffffffff1673ffffffffffffffffffffffffffffffffffffffff168152602001908152602001600020546103729190610a03565b90506000600160008473ffffffffffffffffffffffffffffffffffffffff1673ffffffffffffffffffffffffffffffffffffffff168152602001908152602001600020819055506001816103c69190610a37565b600160008060016000805490506103dd9190610a03565b815481106103ee576103ed610a6b565b5b9060005260206000200160009054906101000a900473ffffffffffffffffffffffffffffffffffffffff1673ffffffffffffffffffffffffffffffffffffffff1673ffffffffffffffffffffffffffffffffffffffff168152602001908152602001600020819055506000600160008054905061046b9190610a03565b8154811061047c5761047b610a6b565b5b9060005260206000200160009054906101000a900473ffffffffffffffffffffffffffffffffffffffff16600082815481106104bb576104ba610a6b565b5b9060005260206000200160006101000a81548173ffffffffffffffffffffffffffffffffffffffff021916908373ffffffffffffffffffffffffffffffffffffffff160217905550600080548061051557610514610a9a565b5b6001900381819060005260206000200160006101000a81549073ffffffffffffffffffffffffffffffffffffffff02191690559055505b50565b606060008054806020026020016040519081016040528092919081815260200182805480156105d357602002820191906000526020600020905b8160009054906101000a900473ffffffffffffffffffffffffffffffffffffffff1673ffffffffffffffffffffffffffffffffffffffff1681526020019060010190808311610589575b5050505050905090565b60005b6000805490508110156106825760006001600080848154811061060657610605610a6b565b5b9060005260206000200160009054906101000a900473ffffffffffffffffffffffffffffffffffffffff1673ffffffffffffffffffffffffffffffffffffffff1673ffffffffffffffffffffffffffffffffffffffff16815260200190815260200160002081905550808061067a90610ac9565b9150506105e0565b506000806106909190610739565b565b60008080549050905090565b60008082815481106106b3576106b2610a6b565b5b9060005260206000200160009054906101000a900473ffffffffffffffffffffffffffffffffffffffff169050919050565b600060018060008473ffffffffffffffffffffffffffffffffffffffff1673ffffffffffffffffffffffffffffffffffffffff168152602001908152602001600020546107329190610a03565b9050919050565b5080546000825590600052602060002090810190610757919061075a565b50565b5b8082111561077357600081600090555060010161075b565b5090565b600080fd5b600073ffffffffffffffffffffffffffffffffffffffff82169050919050565b60006107a78261077c565b9050919050565b6107b78161079c565b81146107c257600080fd5b50565b6000813590506107d4816107ae565b92915050565b6000602082840312156107f0576107ef610777565b5b60006107fe848285016107c5565b91505092915050565b60008115159050919050565b61081c81610807565b82525050565b60006020820190506108376000830184610813565b92915050565b600081519050919050565b600082825260208201905092915050565b6000819050602082019050919050565b6108728161079c565b82525050565b60006108848383610869565b60208301905092915050565b6000602082019050919050565b60006108a88261083d565b6108b28185610848565b93506108bd83610859565b8060005b838110156108ee5781516108d58882610878565b97506108e083610890565b9250506001810190506108c1565b5085935050505092915050565b60006020820190508181036000830152610915818461089d565b905092915050565b6000819050919050565b6109308161091d565b82525050565b600060208201905061094b6000830184610927565b92915050565b61095a8161091d565b811461096557600080fd5b50565b60008135905061097781610951565b92915050565b60006020828403121561099357610992610777565b5b60006109a184828501610968565b91505092915050565b6109b38161079c565b82525050565b60006020820190506109ce60008301846109aa565b92915050565b7f4e487b7100000000000000000000000000000000000000000000000000000000600052601160045260246000fd5b6000610a0e8261091d565b9150610a198361091d565b9250828203905081811115610a3157610a306109d4565b5b92915050565b6000610a428261091d565b9150610a4d8361091d565b9250828201905080821115610a6557610a646109d4565b5b92915050565b7f4e487b7100000000000000000000000000000000000000000000000000000000600052603260045260246000fd5b7f4e487b7100000000000000000000000000000000000000000000000000000000600052603160045260246000fd5b6000610ad48261091d565b91507fffffffffffffffffffffffffffffffffffffffffffffffffffffffffffffffff8203610b0657610b056109d4565b5b60018201905091905056fea2646970667358221220088d6b74e391b0d7553d5eadcacc9cc9b84b8a7c6b9f25cadf1769ca4ec4ab3c64736f6c63430008110033",
  "linkReferences": {},
  "deployedLinkReferences": {}
}