{
  "_format": "hh-sol-artifact-1",
  "contractName": "DeCAT",
  "sourceName": "src/contracts/DeCAT.sol",
  "abi": [
    {
      "inputs": [],
      "stateMutability": "nonpayable",
      "type": "constructor"
    },
    {
      "anonymous": false,
      "inputs": [
        {
          "indexed": true,
          "internalType": "address",
          "name": "owner",
          "type": "address"
        },
        {
          "indexed": true,
          "internalType": "address",
          "name": "approved",
          "type": "address"
        },
        {
          "indexed": true,
          "internalType": "uint256",
          "name": "tokenId",
          "type": "uint256"
        }
      ],
      "name": "Approval",
      "type": "event"
    },
    {
      "anonymous": false,
      "inputs": [
        {
          "indexed": true,
          "internalType": "address",
          "name": "owner",
          "type": "address"
        },
        {
          "indexed": true,
          "internalType": "address",
          "name": "operator",
          "type": "address"
        },
        {
          "indexed": false,
          "internalType": "bool",
          "name": "approved",
          "type": "bool"
        }
      ],
      "name": "ApprovalForAll",
      "type": "event"
    },
    {
      "anonymous": false,
      "inputs": [
        {
          "indexed": false,
          "internalType": "address",
          "name": "_from",
          "type": "address"
        },
        {
          "indexed": false,
          "internalType": "address",
          "name": "_to",
          "type": "address"
        },
        {
          "indexed": false,
          "internalType": "string",
          "name": "_uri",
          "type": "string"
        }
      ],
      "name": "EndorsedMint",
      "type": "event"
    },
    {
      "anonymous": false,
      "inputs": [
        {
          "indexed": false,
          "internalType": "address",
          "name": "_to",
          "type": "address"
        },
        {
          "indexed": false,
          "internalType": "uint256",
          "name": "_tokenId",
          "type": "uint256"
        },
        {
          "indexed": false,
          "internalType": "string",
          "name": "_uri",
          "type": "string"
        }
      ],
      "name": "Minted",
      "type": "event"
    },
    {
      "anonymous": false,
      "inputs": [
        {
          "indexed": false,
          "internalType": "address[]",
          "name": "_to",
          "type": "address[]"
        },
        {
          "indexed": false,
          "internalType": "string[]",
          "name": "_uri",
          "type": "string[]"
        }
      ],
      "name": "MultipleMinted",
      "type": "event"
    },
    {
      "anonymous": false,
      "inputs": [
        {
          "indexed": true,
          "internalType": "address",
          "name": "from",
          "type": "address"
        },
        {
          "indexed": true,
          "internalType": "address",
          "name": "to",
          "type": "address"
        },
        {
          "indexed": true,
          "internalType": "uint256",
          "name": "tokenId",
          "type": "uint256"
        }
      ],
      "name": "Transfer",
      "type": "event"
    },
    {
      "inputs": [
        {
          "internalType": "address",
          "name": "_address",
          "type": "address"
        }
      ],
      "name": "GetEndorsementsAllowed",
      "outputs": [
        {
          "internalType": "uint256",
          "name": "",
          "type": "uint256"
        }
      ],
      "stateMutability": "view",
      "type": "function"
    },
    {
      "inputs": [
        {
          "internalType": "address",
          "name": "to",
          "type": "address"
        },
        {
          "internalType": "uint256",
          "name": "tokenId",
          "type": "uint256"
        }
      ],
      "name": "approve",
      "outputs": [],
      "stateMutability": "nonpayable",
      "type": "function"
    },
    {
      "inputs": [
        {
          "internalType": "address",
          "name": "owner",
          "type": "address"
        }
      ],
      "name": "balanceOf",
      "outputs": [
        {
          "internalType": "uint256",
          "name": "",
          "type": "uint256"
        }
      ],
      "stateMutability": "view",
      "type": "function"
    },
    {
      "inputs": [
        {
          "internalType": "address",
          "name": "",
          "type": "address"
        }
      ],
      "name": "creds",
      "outputs": [
        {
          "internalType": "string",
          "name": "",
          "type": "string"
        }
      ],
      "stateMutability": "view",
      "type": "function"
    },
    {
      "inputs": [
        {
          "internalType": "address",
          "name": "to",
          "type": "address"
        },
        {
          "internalType": "string",
          "name": "uri",
          "type": "string"
        }
      ],
      "name": "endorseMint",
      "outputs": [],
      "stateMutability": "nonpayable",
      "type": "function"
    },
    {
      "inputs": [],
      "name": "getAccounts",
      "outputs": [
        {
          "internalType": "address[]",
          "name": "",
          "type": "address[]"
        }
      ],
      "stateMutability": "view",
      "type": "function"
    },
    {
      "inputs": [
        {
          "internalType": "uint256",
          "name": "tokenId",
          "type": "uint256"
        }
      ],
      "name": "getApproved",
      "outputs": [
        {
          "internalType": "address",
          "name": "",
          "type": "address"
        }
      ],
      "stateMutability": "view",
      "type": "function"
    },
    {
      "inputs": [
        {
          "internalType": "address",
          "name": "_address",
          "type": "address"
        }
      ],
      "name": "getEndorsementsReceived",
      "outputs": [
        {
          "internalType": "uint256",
          "name": "",
          "type": "uint256"
        }
      ],
      "stateMutability": "view",
      "type": "function"
    },
    {
      "inputs": [],
      "name": "getTokenId",
      "outputs": [
        {
          "internalType": "uint256",
          "name": "",
          "type": "uint256"
        }
      ],
      "stateMutability": "view",
      "type": "function"
    },
    {
      "inputs": [
        {
          "internalType": "address",
          "name": "_address",
          "type": "address"
        }
      ],
      "name": "getTokenIdAccount",
      "outputs": [
        {
          "internalType": "uint256[]",
          "name": "",
          "type": "uint256[]"
        }
      ],
      "stateMutability": "view",
      "type": "function"
    },
    {
      "inputs": [
        {
          "internalType": "address",
          "name": "_address",
          "type": "address"
        }
      ],
      "name": "getTokenIdAccountEndorsing",
      "outputs": [
        {
          "internalType": "uint256[]",
          "name": "",
          "type": "uint256[]"
        }
      ],
      "stateMutability": "view",
      "type": "function"
    },
    {
      "inputs": [],
      "name": "getTotalMints",
      "outputs": [
        {
          "internalType": "uint256",
          "name": "",
          "type": "uint256"
        }
      ],
      "stateMutability": "view",
      "type": "function"
    },
    {
      "inputs": [
        {
          "internalType": "address",
          "name": "_new",
          "type": "address"
        }
      ],
      "name": "getVal",
      "outputs": [
        {
          "internalType": "string",
          "name": "",
          "type": "string"
        }
      ],
      "stateMutability": "view",
      "type": "function"
    },
    {
      "inputs": [
        {
          "internalType": "address",
          "name": "owner",
          "type": "address"
        },
        {
          "internalType": "address",
          "name": "operator",
          "type": "address"
        }
      ],
      "name": "isApprovedForAll",
      "outputs": [
        {
          "internalType": "bool",
          "name": "",
          "type": "bool"
        }
      ],
      "stateMutability": "view",
      "type": "function"
    },
    {
      "inputs": [
        {
          "internalType": "address[]",
          "name": "_to",
          "type": "address[]"
        },
        {
          "internalType": "string[]",
          "name": "_uri",
          "type": "string[]"
        }
      ],
      "name": "mintBatch",
      "outputs": [],
      "stateMutability": "nonpayable",
      "type": "function"
    },
    {
      "inputs": [],
      "name": "name",
      "outputs": [
        {
          "internalType": "string",
          "name": "",
          "type": "string"
        }
      ],
      "stateMutability": "view",
      "type": "function"
    },
    {
      "inputs": [],
      "name": "owner",
      "outputs": [
        {
          "internalType": "address",
          "name": "",
          "type": "address"
        }
      ],
      "stateMutability": "view",
      "type": "function"
    },
    {
      "inputs": [
        {
          "internalType": "uint256",
          "name": "tokenId",
          "type": "uint256"
        }
      ],
      "name": "ownerOf",
      "outputs": [
        {
          "internalType": "address",
          "name": "",
          "type": "address"
        }
      ],
      "stateMutability": "view",
      "type": "function"
    },
    {
      "inputs": [
        {
          "internalType": "address",
          "name": "to",
          "type": "address"
        },
        {
          "internalType": "string",
          "name": "uri",
          "type": "string"
        }
      ],
      "name": "safeMint",
      "outputs": [],
      "stateMutability": "nonpayable",
      "type": "function"
    },
    {
      "inputs": [
        {
          "internalType": "address",
          "name": "from",
          "type": "address"
        },
        {
          "internalType": "address",
          "name": "to",
          "type": "address"
        },
        {
          "internalType": "uint256",
          "name": "tokenId",
          "type": "uint256"
        }
      ],
      "name": "safeTransferFrom",
      "outputs": [],
      "stateMutability": "nonpayable",
      "type": "function"
    },
    {
      "inputs": [
        {
          "internalType": "address",
          "name": "from",
          "type": "address"
        },
        {
          "internalType": "address",
          "name": "to",
          "type": "address"
        },
        {
          "internalType": "uint256",
          "name": "tokenId",
          "type": "uint256"
        },
        {
          "internalType": "bytes",
          "name": "data",
          "type": "bytes"
        }
      ],
      "name": "safeTransferFrom",
      "outputs": [],
      "stateMutability": "nonpayable",
      "type": "function"
    },
    {
      "inputs": [
        {
          "internalType": "address",
          "name": "operator",
          "type": "address"
        },
        {
          "internalType": "bool",
          "name": "approved",
          "type": "bool"
        }
      ],
      "name": "setApprovalForAll",
      "outputs": [],
      "stateMutability": "nonpayable",
      "type": "function"
    },
    {
      "inputs": [
        {
          "internalType": "bytes4",
          "name": "interfaceId",
          "type": "bytes4"
        }
      ],
      "name": "supportsInterface",
      "outputs": [
        {
          "internalType": "bool",
          "name": "",
          "type": "bool"
        }
      ],
      "stateMutability": "view",
      "type": "function"
    },
    {
      "inputs": [],
      "name": "symbol",
      "outputs": [
        {
          "internalType": "string",
          "name": "",
          "type": "string"
        }
      ],
      "stateMutability": "view",
      "type": "function"
    },
    {
      "inputs": [
        {
          "internalType": "uint256",
          "name": "_tokenId",
          "type": "uint256"
        }
      ],
      "name": "tokenURI",
      "outputs": [
        {
          "internalType": "string",
          "name": "",
          "type": "string"
        }
      ],
      "stateMutability": "view",
      "type": "function"
    },
    {
      "inputs": [
        {
          "internalType": "address",
          "name": "",
          "type": "address"
        }
      ],
      "name": "total_endorsement_given",
      "outputs": [
        {
          "internalType": "uint256",
          "name": "",
          "type": "uint256"
        }
      ],
      "stateMutability": "view",
      "type": "function"
    },
    {
      "inputs": [],
      "name": "total_endorsements",
      "outputs": [
        {
          "internalType": "uint256",
          "name": "",
          "type": "uint256"
        }
      ],
      "stateMutability": "view",
      "type": "function"
    },
    {
      "inputs": [],
      "name": "total_mints",
      "outputs": [
        {
          "internalType": "uint256",
          "name": "",
          "type": "uint256"
        }
      ],
      "stateMutability": "view",
      "type": "function"
    },
    {
      "inputs": [
        {
          "internalType": "address",
          "name": "",
          "type": "address"
        }
      ],
      "name": "total_sbt_received_from_org",
      "outputs": [
        {
          "internalType": "uint256",
          "name": "",
          "type": "uint256"
        }
      ],
      "stateMutability": "view",
      "type": "function"
    },
    {
      "inputs": [
        {
          "internalType": "address",
          "name": "from",
          "type": "address"
        },
        {
          "internalType": "address",
          "name": "to",
          "type": "address"
        },
        {
          "internalType": "uint256",
          "name": "tokenId",
          "type": "uint256"
        }
      ],
      "name": "transferFrom",
      "outputs": [],
      "stateMutability": "nonpayable",
      "type": "function"
    }
  ],
  "bytecode": "0x608060405261dead601260006101000a81548173ffffffffffffffffffffffffffffffffffffffff021916908373ffffffffffffffffffffffffffffffffffffffff160217905550604051620000559062000362565b604051809103906000f08015801562000072573d6000803e3d6000fd5b50601360006101000a81548173ffffffffffffffffffffffffffffffffffffffff021916908373ffffffffffffffffffffffffffffffffffffffff160217905550348015620000c057600080fd5b506040518060400160405280600581526020017f44654341540000000000000000000000000000000000000000000000000000008152506040518060400160405280600481526020017f444341540000000000000000000000000000000000000000000000000000000081525081600090816200013e9190620005ea565b508060019081620001509190620005ea565b5050506040518060400160405280600381526020017f31323300000000000000000000000000000000000000000000000000000000008152506007600073dc737bc0b2174a5d4a8ca7b588905c7770c671ee73ffffffffffffffffffffffffffffffffffffffff1673ffffffffffffffffffffffffffffffffffffffff1681526020019081526020016000209081620001ea9190620005ea565b506040518060400160405280600381526020017f343536000000000000000000000000000000000000000000000000000000000081525060076000735b38da6a701c568545dcfcb03fcb875f56beddc473ffffffffffffffffffffffffffffffffffffffff1673ffffffffffffffffffffffffffffffffffffffff1681526020019081526020016000209081620002829190620005ea565b506040518060400160405280600381526020017f736f6e000000000000000000000000000000000000000000000000000000000081525060076000736a475ed41c9a172332dba2308e5d6d059f650e1273ffffffffffffffffffffffffffffffffffffffff1673ffffffffffffffffffffffffffffffffffffffff16815260200190815260200160002090816200031a9190620005ea565b5033601160006101000a81548173ffffffffffffffffffffffffffffffffffffffff021916908373ffffffffffffffffffffffffffffffffffffffff160217905550620006d1565b610b67806200508483390190565b600081519050919050565b7f4e487b7100000000000000000000000000000000000000000000000000000000600052604160045260246000fd5b7f4e487b7100000000000000000000000000000000000000000000000000000000600052602260045260246000fd5b60006002820490506001821680620003f257607f821691505b602082108103620004085762000407620003aa565b5b50919050565b60008190508160005260206000209050919050565b60006020601f8301049050919050565b600082821b905092915050565b600060088302620004727fffffffffffffffffffffffffffffffffffffffffffffffffffffffffffffffff8262000433565b6200047e868362000433565b95508019841693508086168417925050509392505050565b6000819050919050565b6000819050919050565b6000620004cb620004c5620004bf8462000496565b620004a0565b62000496565b9050919050565b6000819050919050565b620004e783620004aa565b620004ff620004f682620004d2565b84845462000440565b825550505050565b600090565b6200051662000507565b62000523818484620004dc565b505050565b5b818110156200054b576200053f6000826200050c565b60018101905062000529565b5050565b601f8211156200059a5762000564816200040e565b6200056f8462000423565b810160208510156200057f578190505b620005976200058e8562000423565b83018262000528565b50505b505050565b600082821c905092915050565b6000620005bf600019846008026200059f565b1980831691505092915050565b6000620005da8383620005ac565b9150826002028217905092915050565b620005f58262000370565b67ffffffffffffffff8111156200061157620006106200037b565b5b6200061d8254620003d9565b6200062a8282856200054f565b600060209050601f8311600181146200066257600084156200064d578287015190505b620006598582620005cc565b865550620006c9565b601f19841662000672866200040e565b60005b828110156200069c5784890151825560018201915060208501945060208101905062000675565b86831015620006bc5784890151620006b8601f891682620005ac565b8355505b6001600288020188555050505b505050505050565b6149a380620006e16000396000f3fe608060405234801561001057600080fd5b50600436106101da5760003560e01c80636566ca721161010457806395d89b41116100a2578063c87b56dd11610071578063c87b56dd146105b5578063d204c45e146105e5578063dba1a7e114610601578063e985e9c51461061f576101da565b806395d89b411461052f578063a22cb4651461054d578063ad3ae1bb14610569578063b88d4fde14610599576101da565b806388ee8afb116100de57806388ee8afb146104a75780638a48ac03146104d75780638da5cb5b146104f5578063924cff6d14610513576101da565b80636566ca72146104295780636ec0dfe51461045957806370a0823114610477576101da565b806323b872dd1161017c57806342842e0e1161014b57806342842e0e1461037d5780634a101c96146103995780635608dfe3146103c95780636352211e146103f9576101da565b806323b872dd146102e357806328b22d8c146102ff5780632b37e0671461032f5780632c4589901461034d576101da565b806306fdde03116101b857806306fdde031461025d578063081812fc1461027b578063095ea7b3146102ab578063107c1cf4146102c7576101da565b8063010a38f5146101df57806301ffc9a7146101fd578063064169f31461022d575b600080fd5b6101e761064f565b6040516101f49190612ec7565b60405180910390f35b61021760048036038101906102129190612f4e565b610659565b6040516102249190612f96565b60405180910390f35b6102476004803603810190610242919061300f565b61073b565b6040516102549190612ec7565b60405180910390f35b610265610784565b60405161027291906130cc565b60405180910390f35b6102956004803603810190610290919061311a565b610816565b6040516102a29190613156565b60405180910390f35b6102c560048036038101906102c09190613171565b61085c565b005b6102e160048036038101906102dc91906132e6565b610973565b005b6102fd60048036038101906102f89190613342565b610cdf565b005b6103196004803603810190610314919061300f565b610d3f565b60405161032691906130cc565b60405180910390f35b610337610e10565b6040516103449190612ec7565b60405180910390f35b6103676004803603810190610362919061300f565b610e16565b6040516103749190612ec7565b60405180910390f35b61039760048036038101906103929190613342565b610e2e565b005b6103b360048036038101906103ae919061300f565b610e4e565b6040516103c09190612ec7565b60405180910390f35b6103e360048036038101906103de919061300f565b610e66565b6040516103f09190613453565b60405180910390f35b610413600480360381019061040e919061311a565b610efd565b6040516104209190613156565b60405180910390f35b610443600480360381019061043e919061300f565b610fae565b6040516104509190612ec7565b60405180910390f35b610461610ff7565b60405161046e9190612ec7565b60405180910390f35b610491600480360381019061048c919061300f565b611001565b60405161049e9190612ec7565b60405180910390f35b6104c160048036038101906104bc919061300f565b6110b8565b6040516104ce9190613453565b60405180910390f35b6104df61114f565b6040516104ec9190613533565b60405180910390f35b6104fd6111ec565b60405161050a9190613156565b60405180910390f35b61052d600480360381019061052891906136fe565b611212565b005b610537611588565b60405161054491906130cc565b60405180910390f35b610567600480360381019061056291906137a2565b61161a565b005b610583600480360381019061057e919061300f565b611630565b60405161059091906130cc565b60405180910390f35b6105b360048036038101906105ae9190613883565b6116d0565b005b6105cf60048036038101906105ca919061311a565b611732565b6040516105dc91906130cc565b60405180910390f35b6105ff60048036038101906105fa91906132e6565b611744565b005b610609611a02565b6040516106169190612ec7565b60405180910390f35b61063960048036038101906106349190613906565b611a08565b6040516106469190612f96565b60405180910390f35b6000601054905090565b60007f80ac58cd000000000000000000000000000000000000000000000000000000007bffffffffffffffffffffffffffffffffffffffffffffffffffffffff1916827bffffffffffffffffffffffffffffffffffffffffffffffffffffffff1916148061072457507f5b5e139f000000000000000000000000000000000000000000000000000000007bffffffffffffffffffffffffffffffffffffffffffffffffffffffff1916827bffffffffffffffffffffffffffffffffffffffffffffffffffffffff1916145b80610734575061073382611a9c565b5b9050919050565b6000600d60008373ffffffffffffffffffffffffffffffffffffffff1673ffffffffffffffffffffffffffffffffffffffff168152602001908152602001600020549050919050565b60606000805461079390613975565b80601f01602080910402602001604051908101604052809291908181526020018280546107bf90613975565b801561080c5780601f106107e15761010080835404028352916020019161080c565b820191906000526020600020905b8154815290600101906020018083116107ef57829003601f168201915b5050505050905090565b600061082182611b06565b6004600083815260200190815260200160002060009054906101000a900473ffffffffffffffffffffffffffffffffffffffff169050919050565b600061086782610efd565b90508073ffffffffffffffffffffffffffffffffffffffff168373ffffffffffffffffffffffffffffffffffffffff16036108d7576040517f08c379a00000000000000000000000000000000000000000000000000000000081526004016108ce90613a18565b60405180910390fd5b8073ffffffffffffffffffffffffffffffffffffffff166108f6611b51565b73ffffffffffffffffffffffffffffffffffffffff16148061092557506109248161091f611b51565b611a08565b5b610964576040517f08c379a000000000000000000000000000000000000000000000000000000000815260040161095b90613aaa565b60405180910390fd5b61096e8383611b59565b505050565b6000600c60003373ffffffffffffffffffffffffffffffffffffffff1673ffffffffffffffffffffffffffffffffffffffff16815260200190815260200160002054118015610a0157506000600960003373ffffffffffffffffffffffffffffffffffffffff1673ffffffffffffffffffffffffffffffffffffffff16815260200190815260200160002054115b610a40576040517f08c379a0000000000000000000000000000000000000000000000000000000008152600401610a3790613b16565b60405180910390fd5b600160106000828254610a539190613b65565b92505081905550610a6682601054611c12565b610a7260105482611c30565b601360009054906101000a900473ffffffffffffffffffffffffffffffffffffffff1673ffffffffffffffffffffffffffffffffffffffff16630a3b0a4f836040518263ffffffff1660e01b8152600401610acd9190613156565b600060405180830381600087803b158015610ae757600080fd5b505af1158015610afb573d6000803e3d6000fd5b50505050600160086000828254610b129190613b65565b925050819055506001600c60003373ffffffffffffffffffffffffffffffffffffffff1673ffffffffffffffffffffffffffffffffffffffff1681526020019081526020016000206000828254610b699190613b99565b925050819055506001600b60003373ffffffffffffffffffffffffffffffffffffffff1673ffffffffffffffffffffffffffffffffffffffff1681526020019081526020016000206000828254610bc09190613b65565b925050819055506001600d60008473ffffffffffffffffffffffffffffffffffffffff1673ffffffffffffffffffffffffffffffffffffffff1681526020019081526020016000206000828254610c179190613b65565b92505081905550600f60008373ffffffffffffffffffffffffffffffffffffffff1673ffffffffffffffffffffffffffffffffffffffff16815260200190815260200160002060105490806001815401808255809150506001900390600052602060002001600090919091909150556001600a6000828254610c999190613b65565b925050819055507f77f91bdebd7f97812a24eb286a00580068fdacb7a504e805c0db14273fb32d6e338383604051610cd393929190613bcd565b60405180910390a15050565b610cf0610cea611b51565b82611c9d565b610d2f576040517f08c379a0000000000000000000000000000000000000000000000000000000008152600401610d2690613c7d565b60405180910390fd5b610d3a838383611d32565b505050565b6060600760008373ffffffffffffffffffffffffffffffffffffffff1673ffffffffffffffffffffffffffffffffffffffff1681526020019081526020016000208054610d8b90613975565b80601f0160208091040260200160405190810160405280929190818152602001828054610db790613975565b8015610e045780601f10610dd957610100808354040283529160200191610e04565b820191906000526020600020905b815481529060010190602001808311610de757829003601f168201915b50505050509050919050565b60085481565b600b6020528060005260406000206000915090505481565b610e49838383604051806020016040528060008152506116d0565b505050565b60096020528060005260406000206000915090505481565b6060600f60008373ffffffffffffffffffffffffffffffffffffffff1673ffffffffffffffffffffffffffffffffffffffff168152602001908152602001600020805480602002602001604051908101604052809291908181526020018280548015610ef157602002820191906000526020600020905b815481526020019060010190808311610edd575b50505050509050919050565b6000806002600084815260200190815260200160002060009054906101000a900473ffffffffffffffffffffffffffffffffffffffff169050600073ffffffffffffffffffffffffffffffffffffffff168173ffffffffffffffffffffffffffffffffffffffff1603610fa5576040517f08c379a0000000000000000000000000000000000000000000000000000000008152600401610f9c90613ce9565b60405180910390fd5b80915050919050565b6000600c60008373ffffffffffffffffffffffffffffffffffffffff1673ffffffffffffffffffffffffffffffffffffffff168152602001908152602001600020549050919050565b6000600854905090565b60008073ffffffffffffffffffffffffffffffffffffffff168273ffffffffffffffffffffffffffffffffffffffff1603611071576040517f08c379a000000000000000000000000000000000000000000000000000000000815260040161106890613d7b565b60405180910390fd5b600360008373ffffffffffffffffffffffffffffffffffffffff1673ffffffffffffffffffffffffffffffffffffffff168152602001908152602001600020549050919050565b6060600e60008373ffffffffffffffffffffffffffffffffffffffff1673ffffffffffffffffffffffffffffffffffffffff16815260200190815260200160002080548060200260200160405190810160405280929190818152602001828054801561114357602002820191906000526020600020905b81548152602001906001019080831161112f575b50505050509050919050565b6060601360009054906101000a900473ffffffffffffffffffffffffffffffffffffffff1673ffffffffffffffffffffffffffffffffffffffff1663410d59cc6040518163ffffffff1660e01b8152600401600060405180830381865afa1580156111be573d6000803e3d6000fd5b505050506040513d6000823e3d601f19601f820116820180604052508101906111e79190613e47565b905090565b601160009054906101000a900473ffffffffffffffffffffffffffffffffffffffff1681565b6000600760003373ffffffffffffffffffffffffffffffffffffffff1673ffffffffffffffffffffffffffffffffffffffff168152602001908152602001600020805461125e90613975565b9050116112a0576040517f08c379a000000000000000000000000000000000000000000000000000000000815260040161129790613edc565b60405180910390fd5b60005b825181101561154a576001601060008282546112bf9190613b65565b925050819055506112ec8382815181106112dc576112db613efc565b5b6020026020010151601054611c12565b61131260105483838151811061130557611304613efc565b5b6020026020010151611c30565b601360009054906101000a900473ffffffffffffffffffffffffffffffffffffffff1673ffffffffffffffffffffffffffffffffffffffff16630a3b0a4f84838151811061136357611362613efc565b5b60200260200101516040518263ffffffff1660e01b81526004016113879190613156565b600060405180830381600087803b1580156113a157600080fd5b505af11580156113b5573d6000803e3d6000fd5b505050506001600860008282546113cc9190613b65565b925050819055506001600960008584815181106113ec576113eb613efc565b5b602002602001015173ffffffffffffffffffffffffffffffffffffffff1673ffffffffffffffffffffffffffffffffffffffff168152602001908152602001600020600082825461143d9190613b65565b925050819055506001600c600085848151811061145d5761145c613efc565b5b602002602001015173ffffffffffffffffffffffffffffffffffffffff1673ffffffffffffffffffffffffffffffffffffffff16815260200190815260200160002060008282546114ae9190613b65565b92505081905550600e60008483815181106114cc576114cb613efc565b5b602002602001015173ffffffffffffffffffffffffffffffffffffffff1673ffffffffffffffffffffffffffffffffffffffff1681526020019081526020016000206010549080600181540180825580915050600190039060005260206000200160009091909190915055808061154290613f2b565b9150506112a3565b507fdbdfe27cc8c62cbd6e437cde4115aa8e28e45ab0581f9720b55b3c41141fdc13828260405161157c92919061407f565b60405180910390a15050565b60606001805461159790613975565b80601f01602080910402602001604051908101604052809291908181526020018280546115c390613975565b80156116105780601f106115e557610100808354040283529160200191611610565b820191906000526020600020905b8154815290600101906020018083116115f357829003601f168201915b5050505050905090565b61162c611625611b51565b8383611f98565b5050565b6007602052806000526040600020600091509050805461164f90613975565b80601f016020809104026020016040519081016040528092919081815260200182805461167b90613975565b80156116c85780601f1061169d576101008083540402835291602001916116c8565b820191906000526020600020905b8154815290600101906020018083116116ab57829003601f168201915b505050505081565b6116e16116db611b51565b83611c9d565b611720576040517f08c379a000000000000000000000000000000000000000000000000000000000815260040161171790613c7d565b60405180910390fd5b61172c84848484612104565b50505050565b606061173d82612160565b9050919050565b6000600760003373ffffffffffffffffffffffffffffffffffffffff1673ffffffffffffffffffffffffffffffffffffffff168152602001908152602001600020805461179090613975565b9050116117d2576040517f08c379a00000000000000000000000000000000000000000000000000000000081526004016117c990613edc565b60405180910390fd5b6001601060008282546117e59190613b65565b925050819055506117f882601054611c12565b61180460105482611c30565b601360009054906101000a900473ffffffffffffffffffffffffffffffffffffffff1673ffffffffffffffffffffffffffffffffffffffff16630a3b0a4f836040518263ffffffff1660e01b815260040161185f9190613156565b600060405180830381600087803b15801561187957600080fd5b505af115801561188d573d6000803e3d6000fd5b505050506001600860008282546118a49190613b65565b925050819055506001600960008473ffffffffffffffffffffffffffffffffffffffff1673ffffffffffffffffffffffffffffffffffffffff16815260200190815260200160002060008282546118fb9190613b65565b925050819055506001600c60008473ffffffffffffffffffffffffffffffffffffffff1673ffffffffffffffffffffffffffffffffffffffff16815260200190815260200160002060008282546119529190613b65565b92505081905550600e60008373ffffffffffffffffffffffffffffffffffffffff1673ffffffffffffffffffffffffffffffffffffffff16815260200190815260200160002060105490806001815401808255809150506001900390600052602060002001600090919091909150557fe7cd4ce7f2a465edc730269a1305e8a48bad821e8fb7e152ec413829c01a53c482601054836040516119f6939291906140b6565b60405180910390a15050565b600a5481565b6000600560008473ffffffffffffffffffffffffffffffffffffffff1673ffffffffffffffffffffffffffffffffffffffff16815260200190815260200160002060008373ffffffffffffffffffffffffffffffffffffffff1673ffffffffffffffffffffffffffffffffffffffff16815260200190815260200160002060009054906101000a900460ff16905092915050565b60007f01ffc9a7000000000000000000000000000000000000000000000000000000007bffffffffffffffffffffffffffffffffffffffffffffffffffffffff1916827bffffffffffffffffffffffffffffffffffffffffffffffffffffffff1916149050919050565b611b0f81612272565b611b4e576040517f08c379a0000000000000000000000000000000000000000000000000000000008152600401611b4590613ce9565b60405180910390fd5b50565b600033905090565b816004600083815260200190815260200160002060006101000a81548173ffffffffffffffffffffffffffffffffffffffff021916908373ffffffffffffffffffffffffffffffffffffffff160217905550808273ffffffffffffffffffffffffffffffffffffffff16611bcc83610efd565b73ffffffffffffffffffffffffffffffffffffffff167f8c5be1e5ebec7d5bd14f71427d1e84f3dd0314c0f7b2291e5b200ac8c7c3b92560405160405180910390a45050565b611c2c8282604051806020016040528060008152506122de565b5050565b611c3982612272565b611c78576040517f08c379a0000000000000000000000000000000000000000000000000000000008152600401611c6f90614166565b60405180910390fd5b80600660008481526020019081526020016000209081611c989190614332565b505050565b600080611ca983610efd565b90508073ffffffffffffffffffffffffffffffffffffffff168473ffffffffffffffffffffffffffffffffffffffff161480611ceb5750611cea8185611a08565b5b80611d2957508373ffffffffffffffffffffffffffffffffffffffff16611d1184610816565b73ffffffffffffffffffffffffffffffffffffffff16145b91505092915050565b8273ffffffffffffffffffffffffffffffffffffffff16611d5282610efd565b73ffffffffffffffffffffffffffffffffffffffff1614611da8576040517f08c379a0000000000000000000000000000000000000000000000000000000008152600401611d9f90614476565b60405180910390fd5b600073ffffffffffffffffffffffffffffffffffffffff168273ffffffffffffffffffffffffffffffffffffffff1603611e17576040517f08c379a0000000000000000000000000000000000000000000000000000000008152600401611e0e90614508565b60405180910390fd5b611e22838383612339565b611e2d600082611b59565b6001600360008573ffffffffffffffffffffffffffffffffffffffff1673ffffffffffffffffffffffffffffffffffffffff1681526020019081526020016000206000828254611e7d9190613b99565b925050819055506001600360008473ffffffffffffffffffffffffffffffffffffffff1673ffffffffffffffffffffffffffffffffffffffff1681526020019081526020016000206000828254611ed49190613b65565b92505081905550816002600083815260200190815260200160002060006101000a81548173ffffffffffffffffffffffffffffffffffffffff021916908373ffffffffffffffffffffffffffffffffffffffff160217905550808273ffffffffffffffffffffffffffffffffffffffff168473ffffffffffffffffffffffffffffffffffffffff167fddf252ad1be2c89b69c2b068fc378daa952ba7f163c4a11628f55a4df523b3ef60405160405180910390a4611f93838383612942565b505050565b8173ffffffffffffffffffffffffffffffffffffffff168373ffffffffffffffffffffffffffffffffffffffff1603612006576040517f08c379a0000000000000000000000000000000000000000000000000000000008152600401611ffd90614574565b60405180910390fd5b80600560008573ffffffffffffffffffffffffffffffffffffffff1673ffffffffffffffffffffffffffffffffffffffff16815260200190815260200160002060008473ffffffffffffffffffffffffffffffffffffffff1673ffffffffffffffffffffffffffffffffffffffff16815260200190815260200160002060006101000a81548160ff0219169083151502179055508173ffffffffffffffffffffffffffffffffffffffff168373ffffffffffffffffffffffffffffffffffffffff167f17307eab39ab6107e8899845ad3d59bd9653f200f220920489ca2b5937696c31836040516120f79190612f96565b60405180910390a3505050565b61210f848484611d32565b61211b84848484612947565b61215a576040517f08c379a000000000000000000000000000000000000000000000000000000000815260040161215190614606565b60405180910390fd5b50505050565b606061216b82611b06565b600060066000848152602001908152602001600020805461218b90613975565b80601f01602080910402602001604051908101604052809291908181526020018280546121b790613975565b80156122045780601f106121d957610100808354040283529160200191612204565b820191906000526020600020905b8154815290600101906020018083116121e757829003601f168201915b505050505090506000612215612ace565b9050600081510361222a57819250505061226d565b60008251111561225f578082604051602001612247929190614662565b6040516020818303038152906040529250505061226d565b61226884612ae5565b925050505b919050565b60008073ffffffffffffffffffffffffffffffffffffffff166002600084815260200190815260200160002060009054906101000a900473ffffffffffffffffffffffffffffffffffffffff1673ffffffffffffffffffffffffffffffffffffffff1614159050919050565b6122e88383612b4d565b6122f56000848484612947565b612334576040517f08c379a000000000000000000000000000000000000000000000000000000000815260040161232b90614606565b60405180910390fd5b505050565b600073ffffffffffffffffffffffffffffffffffffffff168373ffffffffffffffffffffffffffffffffffffffff1614806123c15750601260009054906101000a900473ffffffffffffffffffffffffffffffffffffffff1673ffffffffffffffffffffffffffffffffffffffff168273ffffffffffffffffffffffffffffffffffffffff16145b612400576040517f08c379a00000000000000000000000000000000000000000000000000000000081526004016123f7906146d2565b60405180910390fd5b61240b838383612d26565b601260009054906101000a900473ffffffffffffffffffffffffffffffffffffffff1673ffffffffffffffffffffffffffffffffffffffff168273ffffffffffffffffffffffffffffffffffffffff160361293d576001600960008573ffffffffffffffffffffffffffffffffffffffff1673ffffffffffffffffffffffffffffffffffffffff16815260200190815260200160002060008282546124b09190613b99565b925050819055506000806000905060005b600e60008773ffffffffffffffffffffffffffffffffffffffff1673ffffffffffffffffffffffffffffffffffffffff1681526020019081526020016000208054905081101561258c5783600e60008873ffffffffffffffffffffffffffffffffffffffff1673ffffffffffffffffffffffffffffffffffffffff168152602001908152602001600020828154811061255d5761255c613efc565b5b906000526020600020015403612579578092506001915061258c565b808061258490613f2b565b9150506124c1565b50600e60008673ffffffffffffffffffffffffffffffffffffffff1673ffffffffffffffffffffffffffffffffffffffff1681526020019081526020016000206001600e60008873ffffffffffffffffffffffffffffffffffffffff1673ffffffffffffffffffffffffffffffffffffffff1681526020019081526020016000208054905061261b9190613b99565b8154811061262c5761262b613efc565b5b9060005260206000200154600e60008773ffffffffffffffffffffffffffffffffffffffff1673ffffffffffffffffffffffffffffffffffffffff168152602001908152602001600020838154811061268857612687613efc565b5b9060005260206000200181905550600e60008673ffffffffffffffffffffffffffffffffffffffff1673ffffffffffffffffffffffffffffffffffffffff1681526020019081526020016000208054806126e5576126e46146f2565b5b600190038181906000526020600020016000905590558061293a5760005b600f60008773ffffffffffffffffffffffffffffffffffffffff1673ffffffffffffffffffffffffffffffffffffffff168152602001908152602001600020805490508110156127ca5783600f60008873ffffffffffffffffffffffffffffffffffffffff1673ffffffffffffffffffffffffffffffffffffffff168152602001908152602001600020828154811061279f5761279e613efc565b5b9060005260206000200154036127b7578092506127ca565b80806127c290613f2b565b915050612703565b50600f60008673ffffffffffffffffffffffffffffffffffffffff1673ffffffffffffffffffffffffffffffffffffffff1681526020019081526020016000206001600f60008873ffffffffffffffffffffffffffffffffffffffff1673ffffffffffffffffffffffffffffffffffffffff168152602001908152602001600020805490506128599190613b99565b8154811061286a57612869613efc565b5b9060005260206000200154600f60008773ffffffffffffffffffffffffffffffffffffffff1673ffffffffffffffffffffffffffffffffffffffff16815260200190815260200160002083815481106128c6576128c5613efc565b5b9060005260206000200181905550600f60008673ffffffffffffffffffffffffffffffffffffffff1673ffffffffffffffffffffffffffffffffffffffff168152602001908152602001600020805480612923576129226146f2565b5b600190038181906000526020600020016000905590555b50505b505050565b505050565b60006129688473ffffffffffffffffffffffffffffffffffffffff16612d2b565b15612ac1578373ffffffffffffffffffffffffffffffffffffffff1663150b7a02612991611b51565b8786866040518563ffffffff1660e01b81526004016129b39493929190614776565b6020604051808303816000875af19250505080156129ef57506040513d601f19601f820116820180604052508101906129ec91906147d7565b60015b612a71573d8060008114612a1f576040519150601f19603f3d011682016040523d82523d6000602084013e612a24565b606091505b506000815103612a69576040517f08c379a0000000000000000000000000000000000000000000000000000000008152600401612a6090614606565b60405180910390fd5b805181602001fd5b63150b7a0260e01b7bffffffffffffffffffffffffffffffffffffffffffffffffffffffff1916817bffffffffffffffffffffffffffffffffffffffffffffffffffffffff191614915050612ac6565b600190505b949350505050565b606060405180602001604052806000815250905090565b6060612af082611b06565b6000612afa612ace565b90506000815111612b1a5760405180602001604052806000815250612b45565b80612b2484612d4e565b604051602001612b35929190614662565b6040516020818303038152906040525b915050919050565b600073ffffffffffffffffffffffffffffffffffffffff168273ffffffffffffffffffffffffffffffffffffffff1603612bbc576040517f08c379a0000000000000000000000000000000000000000000000000000000008152600401612bb390614850565b60405180910390fd5b612bc581612272565b15612c05576040517f08c379a0000000000000000000000000000000000000000000000000000000008152600401612bfc906148bc565b60405180910390fd5b612c1160008383612339565b6001600360008473ffffffffffffffffffffffffffffffffffffffff1673ffffffffffffffffffffffffffffffffffffffff1681526020019081526020016000206000828254612c619190613b65565b92505081905550816002600083815260200190815260200160002060006101000a81548173ffffffffffffffffffffffffffffffffffffffff021916908373ffffffffffffffffffffffffffffffffffffffff160217905550808273ffffffffffffffffffffffffffffffffffffffff16600073ffffffffffffffffffffffffffffffffffffffff167fddf252ad1be2c89b69c2b068fc378daa952ba7f163c4a11628f55a4df523b3ef60405160405180910390a4612d2260008383612942565b5050565b505050565b6000808273ffffffffffffffffffffffffffffffffffffffff163b119050919050565b606060008203612d95576040518060400160405280600181526020017f30000000000000000000000000000000000000000000000000000000000000008152509050612ea9565b600082905060005b60008214612dc7578080612db090613f2b565b915050600a82612dc0919061490b565b9150612d9d565b60008167ffffffffffffffff811115612de357612de26131bb565b5b6040519080825280601f01601f191660200182016040528015612e155781602001600182028036833780820191505090505b5090505b60008514612ea257600182612e2e9190613b99565b9150600a85612e3d919061493c565b6030612e499190613b65565b60f81b818381518110612e5f57612e5e613efc565b5b60200101907effffffffffffffffffffffffffffffffffffffffffffffffffffffffffffff1916908160001a905350600a85612e9b919061490b565b9450612e19565b8093505050505b919050565b6000819050919050565b612ec181612eae565b82525050565b6000602082019050612edc6000830184612eb8565b92915050565b6000604051905090565b600080fd5b600080fd5b60007fffffffff0000000000000000000000000000000000000000000000000000000082169050919050565b612f2b81612ef6565b8114612f3657600080fd5b50565b600081359050612f4881612f22565b92915050565b600060208284031215612f6457612f63612eec565b5b6000612f7284828501612f39565b91505092915050565b60008115159050919050565b612f9081612f7b565b82525050565b6000602082019050612fab6000830184612f87565b92915050565b600073ffffffffffffffffffffffffffffffffffffffff82169050919050565b6000612fdc82612fb1565b9050919050565b612fec81612fd1565b8114612ff757600080fd5b50565b60008135905061300981612fe3565b92915050565b60006020828403121561302557613024612eec565b5b600061303384828501612ffa565b91505092915050565b600081519050919050565b600082825260208201905092915050565b60005b8381101561307657808201518184015260208101905061305b565b60008484015250505050565b6000601f19601f8301169050919050565b600061309e8261303c565b6130a88185613047565b93506130b8818560208601613058565b6130c181613082565b840191505092915050565b600060208201905081810360008301526130e68184613093565b905092915050565b6130f781612eae565b811461310257600080fd5b50565b600081359050613114816130ee565b92915050565b6000602082840312156131305761312f612eec565b5b600061313e84828501613105565b91505092915050565b61315081612fd1565b82525050565b600060208201905061316b6000830184613147565b92915050565b6000806040838503121561318857613187612eec565b5b600061319685828601612ffa565b92505060206131a785828601613105565b9150509250929050565b600080fd5b600080fd5b7f4e487b7100000000000000000000000000000000000000000000000000000000600052604160045260246000fd5b6131f382613082565b810181811067ffffffffffffffff82111715613212576132116131bb565b5b80604052505050565b6000613225612ee2565b905061323182826131ea565b919050565b600067ffffffffffffffff821115613251576132506131bb565b5b61325a82613082565b9050602081019050919050565b82818337600083830152505050565b600061328961328484613236565b61321b565b9050828152602081018484840111156132a5576132a46131b6565b5b6132b0848285613267565b509392505050565b600082601f8301126132cd576132cc6131b1565b5b81356132dd848260208601613276565b91505092915050565b600080604083850312156132fd576132fc612eec565b5b600061330b85828601612ffa565b925050602083013567ffffffffffffffff81111561332c5761332b612ef1565b5b613338858286016132b8565b9150509250929050565b60008060006060848603121561335b5761335a612eec565b5b600061336986828701612ffa565b935050602061337a86828701612ffa565b925050604061338b86828701613105565b9150509250925092565b600081519050919050565b600082825260208201905092915050565b6000819050602082019050919050565b6133ca81612eae565b82525050565b60006133dc83836133c1565b60208301905092915050565b6000602082019050919050565b600061340082613395565b61340a81856133a0565b9350613415836133b1565b8060005b8381101561344657815161342d88826133d0565b9750613438836133e8565b925050600181019050613419565b5085935050505092915050565b6000602082019050818103600083015261346d81846133f5565b905092915050565b600081519050919050565b600082825260208201905092915050565b6000819050602082019050919050565b6134aa81612fd1565b82525050565b60006134bc83836134a1565b60208301905092915050565b6000602082019050919050565b60006134e082613475565b6134ea8185613480565b93506134f583613491565b8060005b8381101561352657815161350d88826134b0565b9750613518836134c8565b9250506001810190506134f9565b5085935050505092915050565b6000602082019050818103600083015261354d81846134d5565b905092915050565b600067ffffffffffffffff8211156135705761356f6131bb565b5b602082029050602081019050919050565b600080fd5b600061359961359484613555565b61321b565b905080838252602082019050602084028301858111156135bc576135bb613581565b5b835b818110156135e557806135d18882612ffa565b8452602084019350506020810190506135be565b5050509392505050565b600082601f830112613604576136036131b1565b5b8135613614848260208601613586565b91505092915050565b600067ffffffffffffffff821115613638576136376131bb565b5b602082029050602081019050919050565b600061365c6136578461361d565b61321b565b9050808382526020820190506020840283018581111561367f5761367e613581565b5b835b818110156136c657803567ffffffffffffffff8111156136a4576136a36131b1565b5b8086016136b189826132b8565b85526020850194505050602081019050613681565b5050509392505050565b600082601f8301126136e5576136e46131b1565b5b81356136f5848260208601613649565b91505092915050565b6000806040838503121561371557613714612eec565b5b600083013567ffffffffffffffff81111561373357613732612ef1565b5b61373f858286016135ef565b925050602083013567ffffffffffffffff8111156137605761375f612ef1565b5b61376c858286016136d0565b9150509250929050565b61377f81612f7b565b811461378a57600080fd5b50565b60008135905061379c81613776565b92915050565b600080604083850312156137b9576137b8612eec565b5b60006137c785828601612ffa565b92505060206137d88582860161378d565b9150509250929050565b600067ffffffffffffffff8211156137fd576137fc6131bb565b5b61380682613082565b9050602081019050919050565b6000613826613821846137e2565b61321b565b905082815260208101848484011115613842576138416131b6565b5b61384d848285613267565b509392505050565b600082601f83011261386a576138696131b1565b5b813561387a848260208601613813565b91505092915050565b6000806000806080858703121561389d5761389c612eec565b5b60006138ab87828801612ffa565b94505060206138bc87828801612ffa565b93505060406138cd87828801613105565b925050606085013567ffffffffffffffff8111156138ee576138ed612ef1565b5b6138fa87828801613855565b91505092959194509250565b6000806040838503121561391d5761391c612eec565b5b600061392b85828601612ffa565b925050602061393c85828601612ffa565b9150509250929050565b7f4e487b7100000000000000000000000000000000000000000000000000000000600052602260045260246000fd5b6000600282049050600182168061398d57607f821691505b6020821081036139a05761399f613946565b5b50919050565b7f4552433732313a20617070726f76616c20746f2063757272656e74206f776e6560008201527f7200000000000000000000000000000000000000000000000000000000000000602082015250565b6000613a02602183613047565b9150613a0d826139a6565b604082019050919050565b60006020820190508181036000830152613a31816139f5565b9050919050565b7f4552433732313a20617070726f76652063616c6c6572206973206e6f7420746f60008201527f6b656e206f776e6572206e6f7220617070726f76656420666f7220616c6c0000602082015250565b6000613a94603e83613047565b9150613a9f82613a38565b604082019050919050565b60006020820190508181036000830152613ac381613a87565b9050919050565b7f456e646f7273656d656e74206e6f7420616c6c6f776564000000000000000000600082015250565b6000613b00601783613047565b9150613b0b82613aca565b602082019050919050565b60006020820190508181036000830152613b2f81613af3565b9050919050565b7f4e487b7100000000000000000000000000000000000000000000000000000000600052601160045260246000fd5b6000613b7082612eae565b9150613b7b83612eae565b9250828201905080821115613b9357613b92613b36565b5b92915050565b6000613ba482612eae565b9150613baf83612eae565b9250828203905081811115613bc757613bc6613b36565b5b92915050565b6000606082019050613be26000830186613147565b613bef6020830185613147565b8181036040830152613c018184613093565b9050949350505050565b7f4552433732313a2063616c6c6572206973206e6f7420746f6b656e206f776e6560008201527f72206e6f7220617070726f766564000000000000000000000000000000000000602082015250565b6000613c67602e83613047565b9150613c7282613c0b565b604082019050919050565b60006020820190508181036000830152613c9681613c5a565b9050919050565b7f4552433732313a20696e76616c696420746f6b656e2049440000000000000000600082015250565b6000613cd3601883613047565b9150613cde82613c9d565b602082019050919050565b60006020820190508181036000830152613d0281613cc6565b9050919050565b7f4552433732313a2061646472657373207a65726f206973206e6f74206120766160008201527f6c6964206f776e65720000000000000000000000000000000000000000000000602082015250565b6000613d65602983613047565b9150613d7082613d09565b604082019050919050565b60006020820190508181036000830152613d9481613d58565b9050919050565b600081519050613daa81612fe3565b92915050565b6000613dc3613dbe84613555565b61321b565b90508083825260208201905060208402830185811115613de657613de5613581565b5b835b81811015613e0f5780613dfb8882613d9b565b845260208401935050602081019050613de8565b5050509392505050565b600082601f830112613e2e57613e2d6131b1565b5b8151613e3e848260208601613db0565b91505092915050565b600060208284031215613e5d57613e5c612eec565b5b600082015167ffffffffffffffff811115613e7b57613e7a612ef1565b5b613e8784828501613e19565b91505092915050565b7f4e6f7420417574686f72697a6564204f7267616e697a6174696f6e0000000000600082015250565b6000613ec6601b83613047565b9150613ed182613e90565b602082019050919050565b60006020820190508181036000830152613ef581613eb9565b9050919050565b7f4e487b7100000000000000000000000000000000000000000000000000000000600052603260045260246000fd5b6000613f3682612eae565b91507fffffffffffffffffffffffffffffffffffffffffffffffffffffffffffffffff8203613f6857613f67613b36565b5b600182019050919050565b600081519050919050565b600082825260208201905092915050565b6000819050602082019050919050565b600082825260208201905092915050565b6000613fbb8261303c565b613fc58185613f9f565b9350613fd5818560208601613058565b613fde81613082565b840191505092915050565b6000613ff58383613fb0565b905092915050565b6000602082019050919050565b600061401582613f73565b61401f8185613f7e565b93508360208202850161403185613f8f565b8060005b8581101561406d578484038952815161404e8582613fe9565b945061405983613ffd565b925060208a01995050600181019050614035565b50829750879550505050505092915050565b6000604082019050818103600083015261409981856134d5565b905081810360208301526140ad818461400a565b90509392505050565b60006060820190506140cb6000830186613147565b6140d86020830185612eb8565b81810360408301526140ea8184613093565b9050949350505050565b7f45524337323155524953746f726167653a2055524920736574206f66206e6f6e60008201527f6578697374656e7420746f6b656e000000000000000000000000000000000000602082015250565b6000614150602e83613047565b915061415b826140f4565b604082019050919050565b6000602082019050818103600083015261417f81614143565b9050919050565b60008190508160005260206000209050919050565b60006020601f8301049050919050565b600082821b905092915050565b6000600883026141e87fffffffffffffffffffffffffffffffffffffffffffffffffffffffffffffffff826141ab565b6141f286836141ab565b95508019841693508086168417925050509392505050565b6000819050919050565b600061422f61422a61422584612eae565b61420a565b612eae565b9050919050565b6000819050919050565b61424983614214565b61425d61425582614236565b8484546141b8565b825550505050565b600090565b614272614265565b61427d818484614240565b505050565b5b818110156142a15761429660008261426a565b600181019050614283565b5050565b601f8211156142e6576142b781614186565b6142c08461419b565b810160208510156142cf578190505b6142e36142db8561419b565b830182614282565b50505b505050565b600082821c905092915050565b6000614309600019846008026142eb565b1980831691505092915050565b600061432283836142f8565b9150826002028217905092915050565b61433b8261303c565b67ffffffffffffffff811115614354576143536131bb565b5b61435e8254613975565b6143698282856142a5565b600060209050601f83116001811461439c576000841561438a578287015190505b6143948582614316565b8655506143fc565b601f1984166143aa86614186565b60005b828110156143d2578489015182556001820191506020850194506020810190506143ad565b868310156143ef57848901516143eb601f8916826142f8565b8355505b6001600288020188555050505b505050505050565b7f4552433732313a207472616e736665722066726f6d20696e636f72726563742060008201527f6f776e6572000000000000000000000000000000000000000000000000000000602082015250565b6000614460602583613047565b915061446b82614404565b604082019050919050565b6000602082019050818103600083015261448f81614453565b9050919050565b7f4552433732313a207472616e7366657220746f20746865207a65726f2061646460008201527f7265737300000000000000000000000000000000000000000000000000000000602082015250565b60006144f2602483613047565b91506144fd82614496565b604082019050919050565b60006020820190508181036000830152614521816144e5565b9050919050565b7f4552433732313a20617070726f766520746f2063616c6c657200000000000000600082015250565b600061455e601983613047565b915061456982614528565b602082019050919050565b6000602082019050818103600083015261458d81614551565b9050919050565b7f4552433732313a207472616e7366657220746f206e6f6e20455243373231526560008201527f63656976657220696d706c656d656e7465720000000000000000000000000000602082015250565b60006145f0603283613047565b91506145fb82614594565b604082019050919050565b6000602082019050818103600083015261461f816145e3565b9050919050565b600081905092915050565b600061463c8261303c565b6146468185614626565b9350614656818560208601613058565b80840191505092915050565b600061466e8285614631565b915061467a8284614631565b91508190509392505050565b7f4572723a20746f6b656e207472616e7366657220697320424c4f434b45440000600082015250565b60006146bc601e83613047565b91506146c782614686565b602082019050919050565b600060208201905081810360008301526146eb816146af565b9050919050565b7f4e487b7100000000000000000000000000000000000000000000000000000000600052603160045260246000fd5b600081519050919050565b600082825260208201905092915050565b600061474882614721565b614752818561472c565b9350614762818560208601613058565b61476b81613082565b840191505092915050565b600060808201905061478b6000830187613147565b6147986020830186613147565b6147a56040830185612eb8565b81810360608301526147b7818461473d565b905095945050505050565b6000815190506147d181612f22565b92915050565b6000602082840312156147ed576147ec612eec565b5b60006147fb848285016147c2565b91505092915050565b7f4552433732313a206d696e7420746f20746865207a65726f2061646472657373600082015250565b600061483a602083613047565b915061484582614804565b602082019050919050565b600060208201905081810360008301526148698161482d565b9050919050565b7f4552433732313a20746f6b656e20616c7265616479206d696e74656400000000600082015250565b60006148a6601c83613047565b91506148b182614870565b602082019050919050565b600060208201905081810360008301526148d581614899565b9050919050565b7f4e487b7100000000000000000000000000000000000000000000000000000000600052601260045260246000fd5b600061491682612eae565b915061492183612eae565b925082614931576149306148dc565b5b828204905092915050565b600061494782612eae565b915061495283612eae565b925082614962576149616148dc565b5b82820690509291505056fea264697066735822122013dcfee577b8aa09e9ae21885643c5b8c06777530b4c12728e35826400051a5c64736f6c63430008110033608060405234801561001057600080fd5b50610b47806100206000396000f3fe608060405234801561001057600080fd5b50600436106100885760003560e01c806352efea6e1161005b57806352efea6e14610113578063949d225d1461011d5780639507d39a1461013b578063fd6aad251461016b57610088565b80630a3b0a4f1461008d57806321887c3d146100a957806329092d0e146100d9578063410d59cc146100f5575b600080fd5b6100a760048036038101906100a291906107da565b61019b565b005b6100c360048036038101906100be91906107da565b610292565b6040516100d09190610822565b60405180910390f35b6100f360048036038101906100ee91906107da565b6102dd565b005b6100fd61054f565b60405161010a91906108fb565b60405180910390f35b61011b6105dd565b005b610125610692565b6040516101329190610936565b60405180910390f35b6101556004803603810190610150919061097d565b61069e565b60405161016291906109b9565b60405180910390f35b610185600480360381019061018091906107da565b6106e5565b6040516101929190610936565b60405180910390f35b6000600160008373ffffffffffffffffffffffffffffffffffffffff1673ffffffffffffffffffffffffffffffffffffffff168152602001908152602001600020540361028f576000819080600181540180825580915050600190039060005260206000200160009091909190916101000a81548173ffffffffffffffffffffffffffffffffffffffff021916908373ffffffffffffffffffffffffffffffffffffffff160217905550600080549050600160008373ffffffffffffffffffffffffffffffffffffffff1673ffffffffffffffffffffffffffffffffffffffff168152602001908152602001600020819055505b50565b600080600160008473ffffffffffffffffffffffffffffffffffffffff1673ffffffffffffffffffffffffffffffffffffffff16815260200190815260200160002054119050919050565b6000600160008373ffffffffffffffffffffffffffffffffffffffff1673ffffffffffffffffffffffffffffffffffffffff16815260200190815260200160002054111561054c57600060018060008473ffffffffffffffffffffffffffffffffffffffff1673ffffffffffffffffffffffffffffffffffffffff168152602001908152602001600020546103729190610a03565b90506000600160008473ffffffffffffffffffffffffffffffffffffffff1673ffffffffffffffffffffffffffffffffffffffff168152602001908152602001600020819055506001816103c69190610a37565b600160008060016000805490506103dd9190610a03565b815481106103ee576103ed610a6b565b5b9060005260206000200160009054906101000a900473ffffffffffffffffffffffffffffffffffffffff1673ffffffffffffffffffffffffffffffffffffffff1673ffffffffffffffffffffffffffffffffffffffff168152602001908152602001600020819055506000600160008054905061046b9190610a03565b8154811061047c5761047b610a6b565b5b9060005260206000200160009054906101000a900473ffffffffffffffffffffffffffffffffffffffff16600082815481106104bb576104ba610a6b565b5b9060005260206000200160006101000a81548173ffffffffffffffffffffffffffffffffffffffff021916908373ffffffffffffffffffffffffffffffffffffffff160217905550600080548061051557610514610a9a565b5b6001900381819060005260206000200160006101000a81549073ffffffffffffffffffffffffffffffffffffffff02191690559055505b50565b606060008054806020026020016040519081016040528092919081815260200182805480156105d357602002820191906000526020600020905b8160009054906101000a900473ffffffffffffffffffffffffffffffffffffffff1673ffffffffffffffffffffffffffffffffffffffff1681526020019060010190808311610589575b5050505050905090565b60005b6000805490508110156106825760006001600080848154811061060657610605610a6b565b5b9060005260206000200160009054906101000a900473ffffffffffffffffffffffffffffffffffffffff1673ffffffffffffffffffffffffffffffffffffffff1673ffffffffffffffffffffffffffffffffffffffff16815260200190815260200160002081905550808061067a90610ac9565b9150506105e0565b506000806106909190610739565b565b60008080549050905090565b60008082815481106106b3576106b2610a6b565b5b9060005260206000200160009054906101000a900473ffffffffffffffffffffffffffffffffffffffff169050919050565b600060018060008473ffffffffffffffffffffffffffffffffffffffff1673ffffffffffffffffffffffffffffffffffffffff168152602001908152602001600020546107329190610a03565b9050919050565b5080546000825590600052602060002090810190610757919061075a565b50565b5b8082111561077357600081600090555060010161075b565b5090565b600080fd5b600073ffffffffffffffffffffffffffffffffffffffff82169050919050565b60006107a78261077c565b9050919050565b6107b78161079c565b81146107c257600080fd5b50565b6000813590506107d4816107ae565b92915050565b6000602082840312156107f0576107ef610777565b5b60006107fe848285016107c5565b91505092915050565b60008115159050919050565b61081c81610807565b82525050565b60006020820190506108376000830184610813565b92915050565b600081519050919050565b600082825260208201905092915050565b6000819050602082019050919050565b6108728161079c565b82525050565b60006108848383610869565b60208301905092915050565b6000602082019050919050565b60006108a88261083d565b6108b28185610848565b93506108bd83610859565b8060005b838110156108ee5781516108d58882610878565b97506108e083610890565b9250506001810190506108c1565b5085935050505092915050565b60006020820190508181036000830152610915818461089d565b905092915050565b6000819050919050565b6109308161091d565b82525050565b600060208201905061094b6000830184610927565b92915050565b61095a8161091d565b811461096557600080fd5b50565b60008135905061097781610951565b92915050565b60006020828403121561099357610992610777565b5b60006109a184828501610968565b91505092915050565b6109b38161079c565b82525050565b60006020820190506109ce60008301846109aa565b92915050565b7f4e487b7100000000000000000000000000000000000000000000000000000000600052601160045260246000fd5b6000610a0e8261091d565b9150610a198361091d565b9250828203905081811115610a3157610a306109d4565b5b92915050565b6000610a428261091d565b9150610a4d8361091d565b9250828201905080821115610a6557610a646109d4565b5b92915050565b7f4e487b7100000000000000000000000000000000000000000000000000000000600052603260045260246000fd5b7f4e487b7100000000000000000000000000000000000000000000000000000000600052603160045260246000fd5b6000610ad48261091d565b91507fffffffffffffffffffffffffffffffffffffffffffffffffffffffffffffffff8203610b0657610b056109d4565b5b60018201905091905056fea2646970667358221220088d6b74e391b0d7553d5eadcacc9cc9b84b8a7c6b9f25cadf1769ca4ec4ab3c64736f6c63430008110033",
  "linkReferences": {},
  "deployedLinkReferences": {}
}